000001HELMAR  GRADE                           M200919590042498446    106695923470000000000000000000000                                                                                                                                                                                
000002JOSE VANDERLEI CARDOZO                  M0701195400886393      102303690030000000000000000000000                                                                                                                                                                                
000003IRAN JOEL DOS REIS                      M121119570084686323    102558542740000000000000000000000                                                                                                                                                                                
000004GERALDO WINGERT                         M081219470088944180    102500014000942530608701015551755109 769 735  93               PAI DO GERSON DA RL                                                                                                                               
000005VALDIR RIEGEL                           M190219530054793277    102417963150000000000000000000000112 884 714  885934386 LEANDRO                                                                                                                                                  
000006VITOR ADEMIR GLAESER                    M000000000386353323    000000000000000000000000000000000                                                                                                                                                                                
000007JOSE SOUZA MOTA                         M221019430047556145    000000000000000000000000000000000                                                                                                                                                                                
000008ELOIDES DA SILVA                        M180519540073304323    102460764340000000000000000000000                                                                                                                                                                                
000009ALCEU MACHADO DE BORBA                  M180319530000000       000000000000000000000000000000000                                                                                                                                                                                
000010CLERIA MARIA DA SILVA                   F310119520005794253    102445202483995835309100000000000                              RUA: QUINZE DE NOVEMBRO, 98 - SANTOS DUMONT - SL - RS.                                                                                            
000011IVONI SPANIOL WECKER                    F00000000000333212     000000000000000000000000000000000                                                                                                                                                                                
000012JANETE TEREZINHA WARKEN                 F130619540040391324    102500003900000000000000000000000                                                                                                                                                                                
000013ANA ANGELITA CARUBIM DOS SANTOS         F201219590091093324    000000000000000000000000000000000                                                                                                                                                                                
000014OSCAR RIBEIRO DA SILVA                  M220619580099728543    000000000000000000000000000000000                                                                                                                                                                                
000015NEUSA MARIA RITTER                      F000000000000000       000000000000000000000000000000000                                                                                                                                                                                
000016IRACEMA RADAELI BLASI                   F000000000065661581    121063498760000000000000000000000                                                                                                                                                                                
000017ROQUE ANDRIOLI                          M000000000000000       000000000000000000000000000000000                                                                                                                                                                                
000018JAIR INDIO DO BRASIL                    M000000000000000       000000000000000000000000000000000                                                                                                                                                                                
000019GILSON ZANELLA                          M150819590082205543    000000000000000000000000000000000                                                                                                                                                                                
000020ADEMIR                                  M000000000000000       000000000000000000000000000000000                                                                                                                                                                                
000021CELSO HANAUER                           M300519630010171544    000000000000000000000000000000000                                                                                                                                                                                
000022RAUL HENNEMANN                          M000000000000000       000000000000000000000000000000000                                                                                                                                                                                
000024JOAO RAMBO                              M230619540081136446    106695375162409159605303031330875112960687700   561-3097       RUA: ESPIRITO SANTO, 69 - RINCAO GAUCHO - ESTANCIA VELHA  RUA: ESPIRITO SANTO, 69 - RINCAO GAUCHO - ESTANCIA VELHA                                
000025ADEMIR ZANG                             M000000000000000       000000000000000000000000000000000                                                                                                                                                                                
000026JOSE OLIVEIRA DA ROSA                   M260319520000000       000000000000000000000000000000000                                                                                                                                                                                
000027DARI SILVEIRA AZEVEDO                   M000000000000000       000000000000000000000000000000000                                                                                                                                                                                
000028RENATO CLAUDIO RHODEU                   M021219540056489367    000000000000000000000000000000000               5988114        5988114 - COM DEBORA - REICHERT                                                                                                                   
000029SILVIO EURICO DA SILVA                  M291219540037672324    105929309441611356008201044328407               562-2447       RUA: MINAS GERAIS - 353 - VILA MOOG - PORTAO - NH - RS    OUTRO CONTATO PELO FONE: 582-2734.                                                      
000030DARI SILVEIRA AZEVEDO                   M080819400074774115    121691244050759266301504034030249                              RUA SETE DE SETEMBRO LIBERDADE 0420 NOVO HAMBURGO RS      O MESMO                                                                                 
000031JONAS FERNANDO MULLER                   M160819580000827365    102668913460000000000000000000000                                                                                                                                                                                
000032GILDO ALANO DA SILVA                    M160619490073229188    102418033032037174902001054466121                              RUA ARARUAMA 249 93310002 NOVO HAMBURGO                   O MESMO                                                                                 
000033ANA MARIA BRNNER HENNEMANN              F031119460024741253    102417651931104099941100000000000                                                                                                                                                                                
000034JOSE FRANCISCO DE VARGAS                M28031931002515800032RS12406422307212776809490000000000011384731401                   RUA: TAUBATE, 141 - SAO JORGE - NOVO HAMBURGO -RS         O MESMO                                                                                 
000035ERNANDES NUNES DA SILVEIRA              M301219420073953599    10842605786000000000000000000000011355016481                                                                             AMIGO DO RENATO - FIAT 147                                                              
000036DERLY JOSE FERREIRA                     M010819530096595489    107179655003414524902000000000000                                                                                                                                                                                
000037RENATO SALIBI SCHUTZ                    M1505194900828382      000000000000000000000000000000000                                                                                                                                                                                
000038SERGIO DA COSTA                         M020919560000000       000000000002165893500401004035158               561-1932       RUA: OSCAR EVALDO BECKER, 583 - FLORESTA - ESTANCIA VELHA O MESMO                                                                                 
000039MENO TEOFILO KINOST                     M250819340046518172    106957072880000000000000000000000                                                                                                                                                                                
000040RAUL HENNEMANN                          M050519460065212180    000000000000000000000000000000000                                                                                                                                                                                
000041JOSE REMIDIO LIPPERT                    M040219580067858488    107180117723509026004407029241771               0542851804     RUA PRESIDENTE LUCENA 2001 PICADA CAFE RS                 O MESMO                                                                                 
000042LEONIDIO WEILER                         M060119610066489582    108448049643780695502007032764801               0542851411     RUA CAPELA DO ROSARIO LINHA NOVA                          RS                                                                                      
000043DULCE AULER                             F271019590077722582    108424443088841477903405044308871               0542851411     RUA FELIPE DHEIN                                          RUA FELIPE DHEIN 74 PICADA CAFE RS                                                      
000044CARLOS LORI MARTINS DE OLIVEIRA         M1309195400387043      102500873130000000000000000000000               5973932        RUA ORIPE PAZ 30 CAMPO BOM CENTRO                         RS                                                                                      
000045ADAO MARQUES DE OLIVEIRA                M300419490038037188    105455438370100516681225004409072               5461234        RUA ERVINO LEHNEN 304                                     RUA ERVINO LEHNEN 304 PAROBE                                                            
000046ANSELMO GOMES                           M230119530000000       000000000003128581304900000452296                                                                                                                                                                                
000047AMILTON JOSE SARMENTO                   M2707195500953713      102565566250000000000000000000000                                                                                                                                                                                
000048NELSON LECHNER                          M290419520067366408    106602734941586483900001022145451               5946091        RUA FLORES DA CUNHA 207 PATRIA NOVA NH RS                                                                                                         
000049AIDE TEREZINHA RODRIGUES HENRIQUES      F280719350093675446    000000000000000000000000000000000112077544964                                                                                                                                                                    
000050PAULO DA SILVA FREITAS                  M030419530021484299    120193473873147327000607015713337               9781370        RUA JOAQUIM GONCALVES LEDO 352 AP 1 CANUDOS NH RS         O MESMO                                                                                 
000051ARMIN JACOBSEN                          M31081957002055300003  120077505483894227508709008054141                              RUA DAVI DAL RI 132 BAIRRO METZLER CAMPO BOM RS           O MESMO                                                                                 
000052WALDEMAR PEREIRA CORREA                 M040119390089459188    000000000000000000000000000000000                                                                                                                                                                                
000053NELIO GASTAO BECK                       M111019530094545490    106870317930506712953513040111000               5972092        RUA HEITOR SIVAL HELM 24 JARDIM DO SOL CAMPO BOM RS       O MESMO                                                                                 
000054JULIO CESAR MARTINS DA SILVA            M010119490090093216    102252853870738960403401002154647               5948515        RUA TUPI 419 AP 201 RIO BRANCO NH                         O MESMO                                                                                 
000055SERGIO SILVA COLARES                    M210819500040404228 RS 102513801030000000000000000000000               451-2851       ENTRAR EM CONTATO COM EZEQUIEL                                                                                                                    
000056GUILHERME DE CASTRO FALEIRO             M100819440000000       000000000000000000000000000000000                                                                                                                                                                                
000057LIBORIO EUSEBIO MATTES                  M090219520077958446    120884164571220357200000000000000                                                                                                                                                                                
000058LAERCIO WITT                            M290919590095962366    105926395490302455119831283543087               5971765        RUA SALDANHA MARINHO 419 SANTA LUCIA CAMPO BOM            O MESMO                                                                                 
000059TERESINHA FEITEN SCHUSTER               F120419550024962365    102529126640000000000000000000000               5951030        RS239 885 SAO JORGE NH                                    O MESMO                                                                                 
000060MARCOS BIRCK                            M210419580073565323    102576231640000000000000000000000                                                                                                                                                                                
000061JOSE PAULO SIFRONIO                     M180319450076140145    00000000000000000000000000000000011200321299                                                                                                                                                                     
000062IDO IEDO FUHR                           M180219570046242448    107108552032660928207201045396932               5958844        RUA TEODORO GEIGER 65 SCHARLAU SL                         O MESMO                                                                                 
000063PAULO WALMOR BLASI                      M051019610096311647    108719016493791225901503025342902               5985534        RUA MARCOS STEFFEN 56 BAIRRO PAULISTA CAMPO BOM RS        O MESMO                                                                                 
000064LUIS PAULO DAROS                        M130819580097966408    10641428771240262040490200865843311236122113    5947562        RUA TAVARES 105                                           GUARANI NH RS                                                                           
000065GEORGINA DE CAMPOS MACIEL               F210619380068175489    107331449820000000000000000000000                                                                                                                                                                                
000066WILMA KELLER                            F290319540087899298    106749111020000000000000000000000                                                                                                                                                                                
000067ANTONIO CARRER                          M201219540054379541    000000000000000000000000000000000                              RUA CASEMIRO MOREIRA 431 RINCAO GAUCHO EV RS              O MESMO                                                                                 
000068REMI EUGENIO ARNHOLD                    M070319490025361242    000000000000000000000000000000000                              AB PEDRO BLOS 530 BELA VISTA CAMPO BOM RS                 O MESMO                                                                                 
000069VILSON MARINO DA SILVA                  M030319520044530299    000000000000000000000000000000000                              RUA ESPIRITO SANTO 199 SAO JORGE NH                                                                                                               
000070ROSA MARLENE HOFF TRENTIN               F0808196000550120009   106005072350000000000000000000000                              RUA MARECHAL FLORIANO 294 PORTO BLS CAMPO BOM RS          O MESMO                                                                                 
000071JUAREZ PALUDO MARINHEIRO                M170519540073863323    102582926680000000000000000000000                              RUA ARAXA 95 IDEAL NH RS                                  O MEMSO                                                                                 
000072NERCI DE FRETAS RIBEIRO                 M31031948004626500035RS102575373061447437900401037694799               5875299ESPORLIT                                                                                                                                                  
000073LUIZ ANTONIO DA SILVA FREITAS           M2904195500722360325   000000000002500127206804027804121               597-2507 ESIDIOENTRAR EM CONTATO PELO FONE 598-8114 C/ DEBORA DO REICHERT                                                                                        
000074ARMANDO ALIPIO RENCK                    M150619460068289298    102406991891852042109100000000000               582-4193 ELISA RUA: IRMA AMALIA, 94 - CANUDOS - NOVO HAMBURGO - RS.      RUA: IRMA AMALIA, 94 - CANUDOS - NOVO HAMBURGO - RS.                                    
000075ASEMIRO FINKLER                         M090819360064334160    109495739970942779100407049181873               5874886        RUA SAO DOMINGOS 83 LIBERDADE NH                          O MESMO                                                                                 
000076NICOLAU VEIT                            M1110195800604300004   121063501063828394809101026040285                              RUA SERINGUEIRA SN SANTA LUCIA BOM PRINCIPIO RS           O MESMO                                                                                 
000077JOSE LAURO STEFFENS                     M01111956002728600026  123737645302972288890001063422057                              RUA SANTA CATARINA SN MORRO TICO TICO BOM PRINCIPIO RS    O MESMO                                                                                 
000078LUIZ CARLOS FALEIRO                     M09041956008974700010  102670676202559173808705017346122               5981128        RUA MARFIM 334 FLORESTA CAMPO BOM RS                      O MESMO                                                                                 
000079ROMARIO OTAVIO KOHLEIN                  M120119610090302510    107490293554230878095900000000000                              RUA VALDEMAR KIRSCH 55 METZLER CAMPO BOM RS               O MESMO                                                                                 
000080JOSE DURANTE RIVA                       M250719520092348324    000000000000000000000000000000000                                                                                                                                                                                
000081LUIZ SERGIO LEDUR                       M281219600074088582    108295599030000000000000000000000                              RUA SAO PAULO SN BOM PRINCIPIO RS                         O MESMO                                                                                 
000082ROMEU HANNECKER                         M040219560000000       102299929162394278900004029665165               593-7883       RUA: SAO FRANCISCO DE ASSIS, 263 - JARDIM MAUA - N.HAMBURG                                                                                        
000083LUIZ CARLITO RESSER                     M180819550024024366    102454428952299130101506006323064                              RUA VALDEMAR DA SILVA LUZ 1376 MEDIANEIRA TAQUARA RS      O MESMO                                                                                 
000084LUIZ CARLOS HEYLMANN                    M160419620000000       000000000000000000000000000000000                                                                                                                                                                                
000085JOSE FERNANDO SCHEID                    M150319480098745180    170514873860000000000000000000000                                                                                                                                                                                
000086JOSE MARCO MOLLER                       M250519450045467325    10241727224121211690910100666315511133251417    5932750        RUA 11 DE JUNHO 1400 OPERARIO NH                          O MESMO                                                                                 
000087ELISABETH BRANKE                        F090919550071669325    102661192790000000000000000000000                              RUA ERNESTO SPINDLER, 72 JARDIM RONDONIA NH               O MESMO                                                                                 
000088CLAUDETE DOS SANTOS                     F040419590000122489    107254758274365730304900000000000                                                                                                                                                                                
000089ALFEU CARMINATTI                        M000000000000000       000000000000000000000000000000000                                                                                                                                                                                
000090RONALDO SIMON                           M020619610017711447    000000000003292997801508014923489               5659003        RUA PALMEIRA DAS MISSOES 3                                31 BAIRRO IMIGRANTE NOVA HARTZ                                                          
000091GUIDO RENATO SPANIOL                    M131219500060465323    00000000000000000000000602786387413674021072    5521288        RUA JAVALI 151                                            PICADA 48 BAIXA LINDOLFO COLLOR RS                                                      
000092JOSE ITTO ALANJARA NUNES                M151219520078952299    102588706292552387209109009918443               5971418        RUA ALBERTO MOSSMANN 245 SANTA LUCIA CAMPO BOM RS         O MESMO                                                                                 
000093MAURO JOSE PEREIRA                      M131119570051984299    102500730612112785907203023992468               5991572        RUA ALBERTO BINS 175 SANTA FE SAPIRANGA                   O MESMO                                                                                 
000094ALVARO ADALBERTO BACKES                 M100719600077195324    102661005000000000000000000000000                              RUA HENRIQUE HOFFMAMNN 1701 PRIMAVERA NOVA HARTZ          O MESMO                                                                                 
000095JORGE ROBERTO RHEINHEIMER               M020319570099492323    102660994723006839803400000000000               9917966        RUA DA VARZEA 211 CENTRO NOVA HARTZ                       O MESMO                                                                                 
000096PAULINA REBOLI DE AZEVEDO               M21121933007914300027  123856989371636107508708009505739                              RUA ASTECA 62 NOVA CENTENARIO SAPIRANGA                   O MESMO                                                                                 
000097NILSO AMBROSIO CAPONI                   M080819550076991366    106638203133138966001410663820313               5985823        RUA PRES CASTELO BRANCO 183 CELESTE CAMPO BOM             O MESMO                                                                                 
000098ANTONIO CUNHA DE SOUZA                  M260819510025081365    102671865730000000000000000000000                              RUA TUBARAO 107 PRIMAVERA NH                              O MESMO                                                                                 
000099LAURI DILSON WALTER                     M190919550063482366    106007373032140617002007001379366               5952956        RUA DUBLIN 51 CANUDOS NH                                  O MESMO                                                                                 
000100IRICELDA MARIA BACKES                   F240219530054768277    102508430610000000000000000000000                                                                                                                                                                                
000101ALCEU PAULO SIMON                       M250719520070032253    000000000000000000000000000000000                              RUA GUILHERME ALBINO MULLER 409 CENTRO NOVA HARTZ         O MESMO                                                                                 
000102NOELI PERIUS                            F0302196100447100001   108683924370000000000002025512266                              AV DOS MUNICIPIOS 2570 PORTO BLOS CAMPO BOM RS            O MESMO                                                                                 
000103MARGARETE BEIER                         F120119630042406446    106778287613296423400002026147625                              RUA PEDRO ALVARES CABRAL 276 CENTRO NOVA HARTZ RS         O MEMSO                                                                                 
000104OSMAR MACHADO DA SILVA                  M160319500000000       000000000000000000000000000000000                                                                                                                                                                                
000105DIMA ALBERTO PRESTES                    M070919520023126298    102586096103267232201500000000000                              RUA JOSE CARLOS PASSOS 09 CANUDOS NH                      O MEMSO                                                                                 
000106106 - MARIA REGINA DOS SANTOS WERLER    F010619620012372409    000000000001128879249700000000000               5391001        BENTO GONCALVES                                                                                                                                   
000107EVA DE FRAGA RAMOS                      F261219430054429448    106747689704057850007809067147547               5973035        RUA OSLO 165 CANUDOS NH RS                                O MESMO                                                                                 
000108INACIO WEILER                           M161019570066496582    108447770884157809009103028559114               0542851746     RUA 25 DE JULHO SN PICADA CAFE                            O MESMO                                                                                 
000109LAURI SCHUCK                            M121019610093767447    00000000000000000000000302028880334144927091                   AV PRES LUCENA 1775 HARMONIA IVOTI RS                     O MESMO3                                                                                
000110PAULO VATEMI MORAES RAMOS               M251019620041398647    121026857313896353101508025875661                              RUA LINDOLFO ELIO SCHMITZ 434 BELA VISTA EV               O MESMO                                                                                 
000111111 - HêLIO JOSê KIELING                M110619440081644160    000000000000000000000000000000000                                                                                                                                                                                
000112112 - VALDECIR PASSAIA                  M09051960008489700006RS120701852750000000000000000000000               561-5019       RECADOS COM VANTUIR                                                                                                                               
000113113 - CECILIA FELISBINA KINAST          F050619410056437447    106747673030000000000000000000000               561-5019       RECADOS COM VANTUIR                                                                                                                               
000114114 - ORLANDO HENRIQUE ENNINGER         M250419400090176371    123342626190000000000000000000000               561 -5019      RECADOS COM VANTUIR                                                                                                                               
000115115 - JONCELINO ANT‚NIO DA SILVA        M200319550047678488    106897318310000000000000000000000               331-1278 JONCEL331-1278 COM JONCELINO OU RONALDO \ 582-4437 C\LONI                                                                                               
000116ELIAS JOSE FERREIRA NETO                M071219570084561323    102579978384641647100003011927344                                                                                                                                                                                
000117ADEMIR JOSE SPERAFICO                   M230719530084318298    102445418491853044300408003039776               5826140        RUA ARTHUR MOMBERGER 950 VILA DIEHL NH                    O MEMSO                                                                                 
000118VALTER PEREIRA RODRIGUES                M010519570069961366    105920645622113538008206029175897               5878189        RUA KARL WILIAM SCHINCKE 1284                             NOVO HAMBURGO RS                                                                        
000119ENI GLADES KRUMMENAUER                  F110619560024605488    102460759262869946708708003271775               6371382        RUA CAMPO BOM 500 MATIEL FELIZ RS                         O MESMO                                                                                 
000120MILTON JOSE DE CASTRO                   M060719550096360647    106959583104662334500005001443497               59843153       AV SAO LEOPOLDO 123 AP                                    304 CENTRO CAMPO BOM RS                                                                 
000121VIVALDINO PESCADOR                      M250319440080567000040 102587979561387149806805000468883               4512600        RUA 25 DE JULHO 1191 VILA VARGAS SAPUCAIA DO SUL RS       O MESMO                                                                                 
000122JOAO CARLOS SPINDLER                    M280219620005632543    107496999113736771401508011442608               5431123        RUA SPINDLER 61 INTEGRACAO PAROBE RS                      O MESMO                                                                                 
000123123 - MARIA HELENA TRIERWEILER KLEIN    F150719490061113454    10822858158000000000000000000000010988499794                   RECADOS  ENTRAR EM CONTATO COM Dr. DELMAR ELY ZIMMER                                                                                              
000124124 - ANT‚NIO OLKOSKI                   M040319520084755299    102402125220000000000000000000000               561 - 5019     COM VANTUIR                                                                                                                                       
