000001001HELMAR  GRADE                           000001BROCHIER SA                             000001AUX GERAL           S1802197715121977000000010127
000001002HELMAR  GRADE                           000001BROCHIER SA                             000001SER GER             S0102197811121978000000010215
000001003HELMAR  GRADE                           000001BROCHIER SA                             000001SER GER             S0901197911061982000000040916
000001004HELMAR  GRADE                           000001CALCADOS NOVISOL LTDA                   000001AUX CORTE           S0707198230091988000000080821
000001005HELMAR  GRADE                           000001CALCADOS NOVISOL LTDA                   000001AUX CORTE           S0310198813101996000000110227
000001006HELMAR  GRADE                           000001CALCADOS NOVISOL                        000001MECANICO             1410199603071998010820000000
000001007HELMAR  GRADE                           000001CALCADOS CHINESINHA                     000001MECANICO             2007199822071998000003000000
000002001JOSE VANDERLEI CARDOZO                  000002CALCADOS  CALVEZY LTDA                  000002SER GER              0205197031051974040030000000
000002002JOSE VANDERLEI CARDOZO                  000002CALCADOS PETRY LTDA                     000002SER GER              0908197428011975000520000000
000002003JOSE VANDERLEI CARDOZO                  000002BLAUTH FILHOS CIA                       000002AUX FARMACIA         0503197530111977020826000000
000002004JOSE VANDERLEI CARDOZO                  000002BLAUTH FILHOS CIA LTDA                  000002AUX FARMACIA         0102197820041981030220000000
000002005JOSE VANDERLEI CARDOZO                  000002BLAUTH FILHOS LTDA                      000002AUX FARMACIA         1006198130091985040321000000
000002006JOSE VANDERLEI CARDOZO                  000002DROGA RIO FARMACIAS                     000002COBRANCA             0111198510071991050810000000
000002007JOSE VANDERLEI CARDOZO                  000002DROGA RIO FARMACIAS                     000002COBRANCA             0108199116101998070216000000
000003002IRAN JOEL DOS REIS                      000003SCHMIDT IRMAOS SA IND COM               000003AUX CHEFE           S0301197925051982000000040902
000003003IRAN JOEL DOS REIS                      000003CALCADOS JUCARA SA IND COM              000003SER GER              2307198204081982000012000000
000003004IRAN JOEL DOS REIS                      000003STRASSBURGER SA IND COM                 000003CHEFE SECAO          0110198214071983000914000000
000003005IRAN JOEL DOS REIS                      000003REICHERT CALCADOS LTDA                  000003SUPERVISOR          S2207198307031984000000001016
000003006IRAN JOEL DOS REIS                      000003ROLIVER IND TERMOPLASTICA               000003GERENTE              0101198713051987000413000000
000003007IRAN JOEL DOS REIS                      000003SCHMIDT IRMAOS CALCADOS LTDA            000003CHEFE SECAO         S0806198713101996000000130102
000003008IRAN JOEL DOS REIS                      000003SCHMIDT IRMAOS CALCADOS LTDA            000003CHEFE SECAO          1410199616101998020003000000
000003009IRAN JOEL DOS REIS                      000003EMPRESARIO                              000003EMPRESARIO           0307198407011987020605000000
000003010IRAN JOEL DOS REIS                      000003KUNZ DREGER                             000003APRENDIZ TIPOGRAFO   0205197225081978060324000000
000004001GERALDO WINGERT                         000004SCHMIDT IRMAOS S.A INDUSTRIA E COMERCIO 000004CORTADOR             0102196729011968001129000000
000004002GERALDO WINGERT                         000004CALCADOS JUBILEU S.A                    000004CORTADOR             0205196815061968000114000000
000004003GERALDO WINGERT                         000004J.A. KEHL E CIA LTDA                    000004CORTADOR             1507196813061969001029000000
000004004GERALDO WINGERT                         000004ALAREMA - HANS, KONRATH & CIA LTDA      000004AUXILIAR GERAL       1010196922121970010213000000
000004005GERALDO WINGERT                         000004REICHERT S.A. - CACADOS                 000004CORTE E OUT SERVICOSS0906197127091973000000030220
000004006GERALDO WINGERT                         000004CALC. FILLIS IND E COMERCIO             000004CORTADOR             0110197311041975010611000000
000004007GERALDO WINGERT                         000004STRASSBURGER S.A. IND E COMERCIO        000004SERV.GER.CORTE       0205197530041977011129000000
000004008GERALDO WINGERT                         000004CALC. FILLIS IND E COMERCIO             000004VIGIA NOTURNO        0203197802011979001001000000
000004009GERALDO WINGERT                         000004CALC CATLEIA S.A. IND E COMERCIO        000004CORTADOR            S1005198228031986000000050508
000004010GERALDO WINGERT                         000004GVD - IMP. E EXP. LTDA                  000004CORTADOR             0205198617081990040316000000
000004011GERALDO WINGERT                         000004SCALA SERVICOS DE EXPORTACAO LTDA       000004CORTADOR             0104199126111994030726000000
000004012GERALDO WINGERT                         000004CALCADOS ISC DO BRASIL LIMITADA         000004CORTADOR             0103199529011998021029000000
000004013GERALDO WINGERT                         000004CARNES                                  000004                     0103197930061979000330000000
000005001VALDIR RIEGEL                           000005GRINGS & CIA LTDA                       000005AUXILIAR             1903196820071968000402000000
000005002VALDIR RIEGEL                           000005CALCADOS VENEZA LTDA                    000005AUXILIAR OFREINA     1507196830101969010316000000
000005003VALDIR RIEGEL                           000005CALCADOS ETUA LTDA                      000005SERVICOS GERAIS      1711196931031970000415000000
000005004VALDIR RIEGEL                           000005LUDWIG MORAES & CIA LTDA                000005SERVICOS GERAIS      0104197009011973020909000000
000005005VALDIR RIEGEL                           000005FABRICA DE CALCADOS DINAMICA            000005AUXILIAR DE MONTAGEM 2002197305051975020216000000
000005006VALDIR RIEGEL                           000005CALCADOS CENTENARIO LTDA                000005AUX.GER.ALMOXERIFADO 0505197521091976010417000000
000005007VALDIR RIEGEL                           000005CALCADOS DINAMICA                       000005SERVICOS GERAIS      0410197609121983070206000000
000005008VALDIR RIEGEL                           000005ADAMS S/A INDUSTRIA E COMERCIO          000005ALMOXARIFE E OUTROS  1201198401121986021020000000
000005009VALDIR RIEGEL                           000005STRASBURGER S/A INDUSTRIA E COMERCIO    000005ALMOXAREIFE          0212198626051987000525000000
000005010VALDIR RIEGEL                           000005F. XAVIER KUNST COMPON. P/ CALC. LTDA   000005AUX. DE ALMOXARIFADO 0510198717111989020113000000
000005011VALDIR RIEGEL                           000005PERIODO DE CARNES                       000005                     0110199030041991000630000000
000005012VALDIR RIEGEL                           000005ARTECOLA INDUSTRIAS QUIMICAS LTDA       000005AUX. ALMOXARIFADO    1504199101091994030417000000
000005013VALDIR RIEGEL                           000005J.L. FALLER                             000005ALMOXARIFADO         0306199613101996000411000000
000005014VALDIR RIEGEL                           000005J L FALLER                              000005ALMOXERIFADO         1410199626111998020113000000
000006001VITOR ADEMIR GLAESER                    000006ENGEL SA                                000006SER GER              2103197231071972000411000000
000006002VITOR ADEMIR GLAESER                    000006HAAS SA                                 000006SER GER              0709197218041973000712000000
000006003VITOR ADEMIR GLAESER                    000006REICHERT                                000006DISTR               S2304197304091978000000070604
000006004VITOR ADEMIR GLAESER                    000006REICHERT                                000006SUPERVISOR          S0509197808091980000000020923
000006005VITOR ADEMIR GLAESER                    000006REICHERT                                000006SUPERVISOR          S0909198031081982000000020908
000006006VITOR ADEMIR GLAESER                    000006REICHERT                                000006SUPERVISOR          S0109198231081984000000020919
000006007VITOR ADEMIR GLAESER                    000006REICHERT                                000006SUPERVISOR          S0109198431081986000000020919
000006008VITOR ADEMIR GLAESER                    000006REICHERT                                000006S                   S0109198628021988000000020103
000006009VITOR ADEMIR GLAESER                    000006REICHERT                                000006S                   S0103198828021989000000010421
000006010VITOR ADEMIR GLAESER                    000006REICHERT                                000006S                    0103198913101996070713000000
000007000JOSE SOUZA MOTA                         000007 EMPREITEIRA DE OBRAS                   000007MESTRE OBRAS         0109198427031989040627000000
000007001JOSE SOUZA MOTA                         000007GUILERME R                              000007PEDREIRO             0108196724121967000424000000
000007002JOSE SOUZA MOTA                         000007CIRANO DE ALMEIDA                       000007PEDREIRO             0103196819071968000419000000
000007003JOSE SOUZA MOTA                         000007CYPRANO                                 000007CONSTRUCAO           0401196828021969010125000000
000007004JOSE SOUZA MOTA                         000007CLAUDIO                                 000007PEDREIRO             0108196931121969000431000000
000007005JOSE SOUZA MOTA                         000007JOAO RUBINSTEIN                         000007PEDREIRO             0111197020121970000120000000
000007006JOSE SOUZA MOTA                         000007WALTER                                  000007PEDREIRO             0106197131121971000631000000
000007007JOSE SOUZA MOTA                         000007JOSE BAGGIO NETO                        000007PEDREIRO             0105197231121972000731000000
000007008JOSE SOUZA MOTA                         000007CLEMENTE DE ALMEIDA                     000007PEDREIRO             0109197331121973000331000000
000007009JOSE SOUZA MOTA                         000007ANTONIO CARLOS XAVIER                   000007PEDREIRO             0105197431121974000731000000
000007010JOSE SOUZA MOTA                         000007GILDO EDGAR WENDT                       000007PEDREIRO             0108197531031976000731000000
000007011JOSE SOUZA MOTA                         000007LUIZ DINARTE SIMOES MARTINS             000007PEDREIRO             0109197628021977000528000000
000007012JOSE SOUZA MOTA                         000007SILVA NUNES CIA LTDA                    000007MESTRE OBRA          0102197730111977000930000000
000007013JOSE SOUZA MOTA                         000007HABIENGE EMPREENDIMENTOS                000007MESTRE               0201197809041978000308000000
000007014JOSE SOUZA MOTA                         000007HABIENGE EMPREENDIMENTOS                000007MESTRE OBRA          0201197922121979001121000000
000007015JOSE SOUZA MOTA                         000007ELF ENGENHARIA LERCH FRANCO LTDA        000007MESTRE OBRA          2212197931011984040110000000
000007016JOSE SOUZA MOTA                         000007HABIENGE                                000007MESTRE OBRA          0102198431081984000631000000
000007017JOSE SOUZA MOTA                         000007HABIENGE EMPREENDIMENTOS                000007MESTRE               0105198911051990010011000000
000007018JOSE SOUZA MOTA                         000007MOSSMANN COM                            000007MESTRE               0504199514071995000310000000
000007019JOSE SOUZA MOTA                         000007AUTONOMO                                000007                     0110199030091998071130000000
000008000ELOIDES DA SILVA                        000008CALCADOS SUPERLT GAROTI S A             000008AUXILIAR             0311197024071973020822000000
000008001ELOIDES DA SILVA                        000008CALCADOS ALIPIO LTDA                    000008AJUDANTE             0108197030091970000130000000
000008002ELOIDES DA SILVA                        000008TECELAGEM SPERB S A                     000008SERVICOS GERAIS      0108197311031974000711000000
000008003ELOIDES DA SILVA                        000008CONSTRUTORA SULTEPA S A                 000008AUX. MECANICO        1103197405011975000925000000
000008004ELOIDES DA SILVA                        000008INARCA IND. DE ART.PARA CALCADOS LTDA.  000008SERVICOS GERAIS      1503197530061975000316000000
000008005ELOIDES DA SILVA                        000008INARCA IND.DE ART.PARA CALCADOS LTDA.   000008SERVICOS GERAIS      0803197620041976000113000000
000008006ELOIDES DA SILVA                        000008EXPRESSO LIDERSUL                       000008SERVICOS GERAIS      0305197628071980040226000000
000008007ELOIDES DA SILVA                        000008EXPRESSO LIDERSUL                       000008MOTORISTA SERV.GERALS0110198031121981000000010901
000008008ELOIDES DA SILVA                        000008TRANSPORTADORA TEGON VALENTI S A        000008MOTORISTA           S0106198212061985000000040228
000008009ELOIDES DA SILVA                        000008EXPRESSO CONVENTOS LTDA.                000008MOTORISTA           S2407198507111986000000010919
000008010ELOIDES DA SILVA                        000008REMAC S A TRANSPORTES RODOVIARIOS       000008MOTORISTA           S0110198727061989000000020507
000008011ELOIDES DA SILVA                        000008LIMPLAST IND.COM.REPRESENTACOES LTDA.   000008MOTORISTA           S0107198913081990000000010624
000008012ELOIDES DA SILVA                        000008GENUINO S A. INDUSTRIA ECOMERCIO        000008MOTORISTA           S1508199013091990000000000110
000008013ELOIDES DA SILVA                        000008VEGA SOPAVE S A.                        000008MOTORISTA           S2712199028041995000000060026
000008014ELOIDES DA SILVA                        000008VEGA ENGENHARIA LTDA                    000008MOTORISTA            2904199509111998030611000000
000009001ALCEU MACHADO DE BORBA                  000009TECNOPRODUTO                            000009AUXILIAR             1603197211041972000026000000
000009002ALCEU MACHADO DE BORBA                  000009MET ALPAIR SA                           000009SERVENTE             1203197422041974000111000000
000009003ALCEU MACHADO DE BORBA                  000009A FETTER                                000009SER GER              0902197612071976000504000000
000009004ALCEU MACHADO DE BORBA                  000009IND ELETRO ACOS PLANG                   000009SER GER             S1507197628071986000000140019
000009005ALCEU MACHADO DE BORBA                  000009IND MAQUINAS ENKO                       000009MODELISTA            2907198625041994070827000000
000009006ALCEU MACHADO DE BORBA                  000009METALURGICA ECOPLAN                     000009MODELISTA           S1206199613101996000000000520
000009007ALCEU MACHADO DE BORBA                  000009MET ECOPLAN                             000009MODELISTA            1410199620101998020007000000
000009008ALCEU MACHADO DE BORBA                  000009CARNE                                   000009                     0105199430041996011130000000
000009009ALCEU MACHADO DE BORBA                  000009RURAL                                   000009                     0101197231121972001131000000
000009010ALCEU MACHADO DE BORBA                  000009RURAL                                   000009                     0101197731121977001131000000
000010001CLERIA MARIA DA SILVA                   000010HAUSCHILD S.A. INDUSTRIA E COMERCIO     000010AUXILIAR             1008197002061972010923000000
000010002CLERIA MARIA DA SILVA                   000010ENGEL S/A. INDUSTRIA E COMERCIO         000010SERVICOS GERAIS      2911197117011972000119000000
000010003CLERIA MARIA DA SILVA                   000010CALCADOS SUPERLY - GAROTY S/A - IND COM 000010AUX. COSTURA         1901197209071975030521000000
000010004CLERIA MARIA DA SILVA                   000010CALCADOS PETRY LTDA                     000010SERVICOS GERAIS      0108197531081977020031000000
000010005CLERIA MARIA DA SILVA                   000010INDUSTRIA DE CALCADOS WINTER S.A.       000010SERVICOS GERAIS     S0310197722021978000000000518
000010006CLERIA MARIA DA SILVA                   000010INDUSTRIA DE CALCADOS WINTER S.A.       000010AERVICOS GERAIS      0304197804041983050002000000
000010007CLERIA MARIA DA SILVA                   000010INDUSTRIA  DE CALCADOS WINTER LTDA      000010SERVICOS  GERAIS     1407198301101984010218000000
000010008CLERIA MARIA DA SILVA                   000010M.C. CALCADOS E BOLSAS LTDA.            000010MESTRE DA COSTURA    1702198529041985000213000000
000010009CLERIA MARIA DA SILVA                   000010TRADE WINDS COMERCIO DE CALCADOS LTDA.  000010PREPARADEIRA         0306198527121985000625000000
000010010CLERIA MARIA DA SILVA                   000010INDUSTRIA DE CALCADOS WINTER LTDA.      000010SERVICOS GERAIS      1002198621021991050012000000
000010011CLERIA MARIA DA SILVA                   000010CALCADOS JOMARD LTDA.                   000010PREPARADEIRA "A"     0209199119111991000218000000
000010012CLERIA MARIA DA SILVA                   000010CALCADOS DINA SOAR LTDA.                000010PREPARADEIRA         2011199219121992000030000000
000010013CLERIA MARIA DA SILVA                   000010CALCADOS DINA SOAR LTDA.                000010PREPARADEIRA         2701199331081993000705000000
000010014CLERIA MARIA DA SILVA                   000010CALCADOS DINA SOAR LTDA.                000010PREPARADEIRA         2308199419091997030027000000
000010015CLERIA MARIA DA SILVA                   000010CKM REPRESENTACOES LTDA.                000010PREPARADEIRA         0205199107061991000106000000
000011001IVONI SPANIOL WECKER                    000011CALCADOS DILLY                          000011SERGER               2311198317081990060825000000
000011002IVONI SPANIOL WECKER                    000011CALCADOS ARLEDE                         000011SER GER              2008199018051998070829000000
000011003IVONI SPANIOL WECKER                    000011RURAL                                   000011AGRICULTOR           0101196822111983151022000000
000012001JANETE TEREZINHA WARKEN                 000012REICHERT SA CALCADOS                    000012COSTURA             S2506196917011974000000050521
000012002JANETE TEREZINHA WARKEN                 000012ERMEL CIA LTDA                          000012AUXILIAR             0102197430101976020830000000
000012003JANETE TEREZINHA WARKEN                 000012STRASSBURGER SA                         000012SER GER              0109197701021978000501000000
000012004JANETE TEREZINHA WARKEN                 000012GUILHERME CIA LTDA                      000012AUXILIAR             0103197820051978000220000000
000012005JANETE TEREZINHA WARKEN                 000012BETO ORGANIZACOES                       000012AUX ESCRITORIO       0106197819071978000119000000
000012006JANETE TEREZINHA WARKEN                 000012ORGANIZACOES CONTABEIS LTDA             000012AUXILIAR             0205198005071982020204000000
000012007JANETE TEREZINHA WARKEN                 000012ORGANIZACOES                            000012AUXILIAR             0607198228121984020523000000
000012008JANETE TEREZINHA WARKEN                 000012ORGANIZACOES                            000012AUX                  0206198602011990030701000000
000012009JANETE TEREZINHA WARKEN                 000012ORGANIZACOES                            000012AUX                  0205199013101996060512000000
000012010JANETE TEREZINHA WARKEN                 000012ORGANIZACOES                            000012AUXILIAR             1410199612021998010329000000
000013000ANA ANGELITA CARUBIM DOS SANTOS         000013IND DE CALCADOS MARTINI SA              000013APRENDIZ             0103197415011976011015000000
000013001ANA ANGELITA CARUBIM DOS SANTOS         000013BROCHIER CIA LTDA                       000013AUXILAIR             0103197315061973000315000000
000013002ANA ANGELITA CARUBIM DOS SANTOS         000013PANIFICIO                               000013BALCONISTA           1608197627081977010012000000
000013003ANA ANGELITA CARUBIM DOS SANTOS         000013CALCADOS SAO CRISPIN                    000013BALCONISTA           0109197731031978000631000000
000013004ANA ANGELITA CARUBIM DOS SANTOS         000013CARNELLO CALCADOS                       000013BALCONISTA           0104197823061978000223000000
000013005ANA ANGELITA CARUBIM DOS SANTOS         000013MAKOUROS                                000013TELEFONISTA          1601197930051981020415000000
000013006ANA ANGELITA CARUBIM DOS SANTOS         000013SAT                                     000013RECEPCIONISTA        0106198102011984020702000000
000013007ANA ANGELITA CARUBIM DOS SANTOS         000013EXP CALLI HARRIS                        000013SECRETARIA           1201198417101985010906000000
000013008ANA ANGELITA CARUBIM DOS SANTOS         000013TOPAZIO IM E EXP                        000013PROGRAMADORA         2110198531051986000711000000
000013009ANA ANGELITA CARUBIM DOS SANTOS         000013EBCAL TRADING                           000013PROGRAMADORA         0206198604031988010903000000
000013010ANA ANGELITA CARUBIM DOS SANTOS         000013EMPIRE                                  000013                     0201198920041990010319000000
000013011ANA ANGELITA CARUBIM DOS SANTOS         000013SAT                                     000013AUX                  0309199024041991000722000000
000013012ANA ANGELITA CARUBIM DOS SANTOS         000013GVD                                     000013AUX                  2705199127101992010501000000
000013013ANA ANGELITA CARUBIM DOS SANTOS         000013EMPRESARIA                              000013                     2709199329121994010303000000
000014001OSCAR RIBEIRO DA SILVA                  000014COLLING SILVA CIA LTDA                  000014SER GER              1608197713021978000528000000
000014002OSCAR RIBEIRO DA SILVA                  000014ACABAMENTO DE COURO REAL                000014SER GER              0103197812051978000212000000
000014003OSCAR RIBEIRO DA SILVA                  000014COLLING SILVA CIA LTDA                  000014SER GER              2305197821071980020129000000
000014004OSCAR RIBEIRO DA SILVA                  000014BONDAN IND DE PLASTICOS                 000014SER GER              1808198016051982010829000000
000014005OSCAR RIBEIRO DA SILVA                  000014PROSIN PROD SINTETICOS LTDA             000014SER GER              1705198208091982000322000000
000014006OSCAR RIBEIRO DA SILVA                  000014KALCE IND COM                           000014INGETOR              2610198229101982000004000000
000014007OSCAR RIBEIRO DA SILVA                  000014LIMPLAST IND COM REPRES                 000014SER GER              0111198207051983000607000000
000014008OSCAR RIBEIRO DA SILVA                  000014CALCADOS SOLEMIO LTDA                   000014SER GER              0106198311071986030111000000
000014009OSCAR RIBEIRO DA SILVA                  000014CONJET COMP PARA CALCADOS               000014SER GER             S1208198611091989000000040324
000014010OSCAR RIBEIRO DA SILVA                  000014CONJET COMP                             000014CONTRA MESTRE       S1710198909061993000000050108
000014011OSCAR RIBEIRO DA SILVA                  000014CONJET COMP PARA CALCADOS               000014ENC DE TURNO A NOITES0109199310031994000000000826
000014012OSCAR RIBEIRO DA SILVA                  000014TERMOLOSS IND DE PLASTICOS LTDA         000014CONTRA MESTRE       S0204199423101998000000060418
000015001NEUSA MARIA RITTER                      000015WILBERT MELLO CIA LTDA                  000015PREPARADEIRA         0111197717011978000217000000
000015002NEUSA MARIA RITTER                      000015WILBERT                                 000015IDEM                 0103197815051981030215000000
000015003NEUSA MARIA RITTER                      000015STRASSBURGER SA                         000015SER GER              0106198101111984030501000000
000015004NEUSA MARIA RITTER                      000015STRASSBURGER SA                         000015IDEM                 0112198401111986011101000000
000015005NEUSA MARIA RITTER                      000015STRASSBURGER SA                         000015CHEFE SECAO          0311198609061987000707000000
000015006NEUSA MARIA RITTER                      000015QUIMISINOS SA                           000015CHEFE SECAO          1006198702091988010223000000
000015007NEUSA MARIA RITTER                      000015FORNECEDORA COMP P CALCADOS             000015CONTRA MESTRE       S0609198824051991000000030304
000015008NEUSA MARIA RITTER                      000015IND E COM CALCADOS COOPER LDTA          000015CHEFE COSTURA        0212199110031992000309000000
000015009NEUSA MARIA RITTER                      000015IND COM CALCADOS COOPER                 000015CHEFE SECAO          1103199201041993010021000000
000015010NEUSA MARIA RITTER                      000015PILOT IND COM DE CALCADOS LTDA          000015CHEFE SECAO          0204199301021996020930000000
000015011NEUSA MARIA RITTER                      000015FRANCESCA IND COM                       000015CHEFE SECAO          0102199605031997010105000000
000015012NEUSA MARIA RITTER                      000015BISON IND DE CALCADOS LTDA              000015CHEFE COSTURA        1003199723101998010714000000
000016001IRACEMA RADAELI BLASI                   000016INILVA TOIGO KASPER                     000016DOMESTIVA            0109197810021981020510000000
000016002IRACEMA RADAELI BLASI                   000016REICHERT                                000016CHANFRACAO          S1501198210111983000000020207
000016003IRACEMA RADAELI BLASI                   000016REICHERT                                000016IDEM                 1111198329021984000319000000
000016004IRACEMA RADAELI BLASI                   000016REICHERT                                000016IDEM                 0103198428021987021128000000
000016005IRACEMA RADAELI BLASI                   000016REICHERT                                000016IDEM                 0103198722091987000622000000
000016006IRACEMA RADAELI BLASI                   000016REICHERT                                000016IDEM                S1801198801071989000000010828
000016007IRACEMA RADAELI BLASI                   000016REICHERT                                000016IDEM                 0207198931121993040530000000
000016008IRACEMA RADAELI BLASI                   000016REICHERT                                000016IDEM                S0101199413101996000000030403
000016009IRACEMA RADAELI BLASI                   000016REICHERT                                000016IDEM                 1410199623101998020010000000
000017001ROQUE ANDRIOLI                          000017HOSPITAL O DARCY VARGAS                 000017AUX SECRETARIA       2504197404111976020610000000
000017002ROQUE ANDRIOLI                          000017BANCO DO BRASIL                         000017CONTRATADO           2006198816121988000527000000
000017003ROQUE ANDRIOLI                          000017ARTECOLA IND QUIMICAS LTDA              000017VENDEDOR             0602198904051998090229000000
000017004ROQUE ANDRIOLI                          000017ASCOB ASSE DE COBRANCA                  000017CONTATOS COMERCIAIS  0105198417061988040117000000
000017005ROQUE ANDRIOLI                          000017SERVICO MILITAR.                        000017SOLDADO              1501197614011982051130000000
000018000JAIR INDIO DO BRASIL                    000018METALGRIN IND PLASTICOS                 000018MATRIZEIRO           0108197913071983031113000000
000018001JAIR INDIO DO BRASIL                    000018NOVO HAMBURGO VEICULOS LTDA             000018APRENDIZ             0105197001011971000801000000
000018002JAIR INDIO DO BRASIL                    000018IVO A BONDAN                            000018AJUSTADOR            0101197127051971000427000000
000018003JAIR INDIO DO BRASIL                    000018MAQUINAS KEHL                           000018AJUSTADOR           S0607197127071972000000010524
000018004JAIR INDIO DO BRASIL                    000018GCN EQUIPAMENTOS IND                    000018MEC AJUSTADOR        2408197208021973000515000000
000018005JAIR INDIO DO BRASIL                    000018PALINI  CIA LTDA                        000018AJUSTADOR            0405197326101973000523000000
000018006JAIR INDIO DO BRASIL                    000018MAQUINAS KELH SA                        000018MEC AJUSTADOR       S2711197404051976000000020005
000018007JAIR INDIO DO BRASIL                    000018IND SALTOS SCHMMIDT                     000018AJUSTDOR            S2505197614071976000000000210
000018008JAIR INDIO DO BRASIL                    000018L P COPE                                000018AJUSTADOR            1907197627081976000109000000
000018009JAIR INDIO DO BRASIL                    000018JAEGER VENTURINI                        000018MATRIZEIRO          S1409197615061977000000010020
000018010JAIR INDIO DO BRASIL                    000018ERPS PECAS E MAQUINAS                   000018MECANICO            S1506197722021978000000001117
000018011JAIR INDIO DO BRASIL                    000018IND DE SALTOS SCHMIDT SA                000018AJUSTADOR           S1603197801121978000000001128
000018012JAIR INDIO DO BRASIL                    000018JAEGER VENTURINI                        000018MATRIZEIRO          S0612197828021979000000000326
000018013JAIR INDIO DO BRASIL                    000018PLAST SALT                              000018MATRIZEIRO           1704197913071979000227000000
000018014JAIR INDIO DO BRASIL                    000018INJECT IND DE INJETADOS LTDA            000018MATRIZEIRO          S1807198313071984000000010418
000018015JAIR INDIO DO BRASIL                    000018PLASTIKOS IND DE PLASTICOS              000018MATRIZEIRO           2307198431081984000109000000
000018016JAIR INDIO DO BRASIL                    000018EXPLAST IND E COM DE PLASTICOS LTDA     000018MATRIZEIRO          S0309198424021986000000020024
000018017JAIR INDIO DO BRASIL                    000018COLLING SILVA                           000018SER GER             S0303198627101987000000020323
000018018JAIR INDIO DO BRASIL                    000018PLASTICOS JAVEL LTDA                    000018MATRIZEIRO          S0302198807031989000000010613
000018019JAIR INDIO DO BRASIL                    000018MATRIZAN IND MEC LTDA                   000018MECANICO             0903198923051989000215000000
000018020JAIR INDIO DO BRASIL                    000018PLASTICOS JAVEL LTDA                    000018MATRIZEIRO          S0106199025111991000000020029
000018021JAIR INDIO DO BRASIL                    000018IND E COM DE MATRIZES LTDA              000018FERRAMENTEIRO       S1304199207101993000000020029
000018022JAIR INDIO DO BRASIL                    000018ERCALIER PARTICIPACOES SOCIETARIAS LTDA 000018MATRIZEIRO           0106199502101995000402000000
000018023JAIR INDIO DO BRASIL                    000018IDEM                                    000018IDEM                 1812199507081996000720000000
000018024JAIR INDIO DO BRASIL                    000018EXITO TERMOPLASTICOS LTDA               000018AJUSTADOR MECANICO   0104199716091997000516000000
000018025JAIR INDIO DO BRASIL                    000018SUAREZ IND DE MATRIZES LTDA             000018MATRIZEIRO           1509199726101998010112000000
000019001GILSON ZANELLA                          000019MECANICA SERAFINA LTDA                  000019SERVENTE             0205197730071977000229000000
000019002GILSON ZANELLA                          000019SULBERGER COUROS E ARTEFATOS            000019SER GER             S1909197711011978000000000508
000019003GILSON ZANELLA                          000019TRANSPAVI CODRASA SA                    000019SERVENTE             2102197827071978000507000000
000019004GILSON ZANELLA                          000019CURTUME LEUCK MATTES SA                 000019AJUDANTE            S0304197909121980000000020409
000019005GILSON ZANELLA                          000019IRMAOS SPENGLER CIA LTDA                000019SER GER              1012198006011983020027000000
000019006GILSON ZANELLA                          000019VEMASO INDL DE COUROS LTDA              000019AUX SER GER          1701198325021983000109000000
000019007GILSON ZANELLA                          000019GENUINO SA IND E COM                    000019SER GER             S0203198326101983000000001029
000019008GILSON ZANELLA                          000019COUROMAX COUROS E ACABAMENTOSLTDA       000019SER GER              0111198315121983000115000000
000019009GILSON ZANELLA                          000019J H IND DE COUROS E PELES LTDA          000019SER GER             S0301198403111987000000050413
000019010GILSON ZANELLA                          000019J H IND DE COUROS E PELES LTDA          000019CLASSIFICADOR       S0412198716111989000000020824
000019011GILSON ZANELLA                          000019J H IND DE COUROS E PELES SA            000019AUX CHEFIA          S1812198925041991000000011023
000019012GILSON ZANELLA                          000019J H IND DE COUROS E PELES SA            000019AUX CHEFIA          S2705199110011994000000030801
000019013GILSON ZANELLA                          000019ESTANCIA DOS COUROSIND E EXP LTDA       000019ENC SECAGEM         S2401199428041995000000010907
000019014GILSON ZANELLA                          000019REGIME DE ECONOMIA FAMILIAR             000019AGRICULTOR           0101197331121976031131000000
000019015GILSON ZANELLA                          000019ESTANCIA DOS COUROS                     000019ENC SECAO           S2904199527101998000000041022
000020001ADEMIR                                  000020AUTO ELETRICA CARAZINHO LTDA            000020SER GER              0106196918021972020818000000
000020002ADEMIR                                  000020BANCO INDL E COML SUL SA                000020ESCRITURARIO         0304197231101973010629000000
000020003ADEMIR                                  000020IND DE CALCADOS ERNO SA                 000020AUX TECNICO          0111197315021974000315000000
000020004ADEMIR                                  000020C R SCHNEIDER SA                        000020SER GER              2703197413041974000017000000
000020005ADEMIR                                  000020ERNILDO KOSTE CIA LTDA                  000020RECEPCIONISTA       S1604197420071976000000030201
000020006ADEMIR                                  000020BANRISUL                                000020PRATICANTE           0208197606111998220305000000
000021001CELSO HANAUER                           000021A BUHLER SA CURTUME                     000021AUXILIAR            S0106197713031978000000010106
000021002CELSO HANAUER                           000021A BUHLER SA                             000021SER GER             S0205197809071982000000051011
000021003CELSO HANAUER                           000021A BUHLER SA                             000021SER GER             S1608198227091985000000040410
000021004CELSO HANAUER                           000021CURTUME SULINO SA                       000021SER GER             S0102198602021991000000070002
000021005CELSO HANAUER                           000021CURTUME SULINO LTDA                     000021SER GER             S1006199110041995000000050413
000021006CELSO HANAUER                           000021CURTUME SULINO LYDA                     000021SER GER             S0210199513101996000000010510
000021007CELSO HANAUER                           000021CURTUME SULINO                          000021SER GER              1410199627101998020014000000
000022001RAUL HENNEMANN                          000022EMPRESA                                 000022SG                   0108196529031969030729000000
000022002RAUL HENNEMANN                          000022EMPRESA                                 000022SG                   1707197031011974030615000000
000022003RAUL HENNEMANN                          000022EMPRESA                                 000022SG                   0204198431031986011130000000
000022004RAUL HENNEMANN                          000022EMPRESA                                 000022SG                   1906199109011995030621000000
000022005RAUL HENNEMANN                          000022GUIAS                                   000022SG                   0102197431101975010831000000
000022006RAUL HENNEMANN                          000022CARNES                                  000022AUTNOMO              0111197531101977011131000000
000022007RAUL HENNEMANN                          000022CARNES                                  000022AUTONOMO             0111197931051984040631000000
000022008RAUL HENNEMANN                          000022CARNES                                  000022AUTONOMO             0106198630061991050030000000
000022009RAUL HENNEMANN                          000022CARNES                                  000022AUTONOMO             0102199530041997020230000000
000022010RAUL HENNEMANN                          000022FALTA CARNES                            000022                     0111197731101979011131000000
000022011RAUL HENNEMANN                          000022FALTA CARNES                            000022                     0109199530041996000730000000
000022012RAUL HENNEMANN                          000022FALTA CARNES                            000022                     0105199731071998010231000000
000024001JOAO RAMBO                              000024TECELAGEM SPERB SA                      000024SER GER              2602197505081976010510000000
000024002JOAO RAMBO                              000024ERNESTO SEGER                           000024AUX GERAL            0411197631081977000928000000
000024003JOAO RAMBO                              000024CEREALISTA E SUPERMERCADO SEGER LTDA    000024AUX GERAL            0109197716011978000416000000
000024004JOAO RAMBO                              000024IND E COM CEREAIS FROHLICH LTDA         000024AUX SER GER          0103197801041981030101000000
000024005JOAO RAMBO                              000024CONSTRUTORA DIDERICH LTDA               000024SERVENTE             0405198116091985040413000000
000024006JOAO RAMBO                              000024FINILIX                                 000024PEDREIRO             0411198504051990040601000000
000024007JOAO RAMBO                              000024CONSTRUTORA SULTEPA SA                  000024PEDREIRO             1009199108061992000829000000
000024008JOAO RAMBO                              000024AUTONOMO                                000024                     0111199031081991000931000000
000024009JOAO RAMBO                              000024AUTONOMO                                000024                     0111199130111991000030000000
000024010JOAO RAMBO                              000024AUTONOMO                                000024                     0112199230041998050430000000
000024011JOAO RAMBO                              000024AUTONOMO                                000024                     0109199830091998000030000000
000024012JOAO RAMBO                              000024RURAL                                   000024AGRICULTOR           2406196625021975080802000000
000025001ADEMIR ZANG                             000025AUTO ELETRICA                           000025SG                   0106196918021972020818000000
000025002ADEMIR ZANG                             000025BANCO INDL E COML SUL SA                000025ESCRITURARIO         0304197231101973010629000000
000025003ADEMIR ZANG                             000025IND DE CALCADOS ERNO SA                 000025SG                   0111197315021974000315000000
000025004ADEMIR ZANG                             000025CR SCHEINDER SA                         000025SG                   2703197413041974000017000000
000025005ADEMIR ZANG                             000025ERNILDO KOSTE                           000025RECEPCIONISTA        1604197410061974000125000000
000025006ADEMIR ZANG                             000025ERNILDO KOSTE CIA LTDA                  000025SER GER             S1106197420071976000000021114
000025007ADEMIR ZANG                             000025BANRISUL                                000025                     0208197629101998220228000000
000026000JOSE OLIVEIRA DA ROSA                   000026CORBETTA IRMAOS SA                      000026OPERARIO PRENSAS    S1002197510021976000000010425
000026001JOSE OLIVEIRA DA ROSA                   000026IND BERGER SA COUROS E CALCADOS         000026SER GER              2706197308021975010712000000
000026002JOSE OLIVEIRA DA ROSA                   000026CORBETTA                                000026OPERARIO            S1705197616041984000000110030
000026003JOSE OLIVEIRA DA ROSA                   000026FINILUX COUROS                          000026SER GER             S1505198420061986000000021108
000026004JOSE OLIVEIRA DA ROSA                   000026FINILUX                                 000026SER GER             S2307198619071988000000020913
000026005JOSE OLIVEIRA DA ROSA                   000026FINILUX                                 000026ENC RECURTIMENTO    S2208198823081990000000020920
000026006JOSE OLIVEIRA DA ROSA                   000026FINILUX                                 000026SER GER             S2409199002031992000000020006
000026007JOSE OLIVEIRA DA ROSA                   000026CBC ACABAMENTO                          000026ENC RECURTIMENTO     0306199229061992000027000000
000026008JOSE OLIVEIRA DA ROSA                   000026MAGIC ACABAMENTO E COUROS LTDA          000026ENC BARRACA         S2406199201041993000000010029
000026009JOSE OLIVEIRA DA ROSA                   000026OFICINA DA FLOR  ACABAMENTO EM COUROS   000026ENC SECAGEM          1608199310091993000025000000
000026010JOSE OLIVEIRA DA ROSA                   000026COUTO COUROSCOM E REPRES LTDA           000026ENC BARRACA          0110199317071995010917000000
000026011JOSE OLIVEIRA DA ROSA                   000026MAGIC ACAB E COUROS LTDA                000026ENC DE BARRACA      S2011199513101996000000010303
000026012JOSE OLIVEIRA DA ROSA                   000026MAGIC                                   000026SER GER              1410199610111998020027000000
000026013JOSE OLIVEIRA DA ROSA                   000026RURAL                                   000026AGRICULTOR           0101197031121970001131000000
000027001DARI SILVEIRA AZEVEDO                   000027BARCELOS CIA LTDA                       000027MOTORISTA           S1904196502071965000000000313
000027002DARI SILVEIRA AZEVEDO                   000027IRMAOS HANSEN PEREIRA LTDA              000027MOTORISTA           S0111196528021966000000000515
000027003DARI SILVEIRA AZEVEDO                   000027RUY VARGAS                              000027MOTORISTA           S0103196630011967000000010312
000027004DARI SILVEIRA AZEVEDO                   000027AUTO VIACAO MONTENEGRO LTDA             000027MOTORISTA           S1605196721051968000000010502
000027005DARI SILVEIRA AZEVEDO                   000027LAURENTINO MAYER DA SILVA CIA LTDA      000027MOTORISTA           S1805196812111968000000000805
000027006DARI SILVEIRA AZEVEDO                   000027RUY VARGAS                              000027MOTORISTA           S0112196921031970000000000505
000027007DARI SILVEIRA AZEVEDO                   000027RUTO VIACAO MONTENEGRO LTDA             000027MOTORISTA           S0105197020121971000000020316
000027008DARI SILVEIRA AZEVEDO                   000027VIACAO MONTENEGRO LTDA                  000027MOTORISTA           S0102198425011986000000020911
000027009DARI SILVEIRA AZEVEDO                   000027VIACAO MONTENEGRO LTDA                  000027MOTORISTA           S2106198624071986000000000117
000027010DARI SILVEIRA AZEVEDO                   000027AUTONOMO                                000027MOTORISTA           S0108198629041995000000120228
000027011DARI SILVEIRA AZEVEDO                   000027AUTONOMO                                000027MOTORISTA            3004199529101998030530000000
000027012DARI SILVEIRA AZEVEDO                   000027BENEFICIO                               000027                     0501197231031976040227000000
000027013DARI SILVEIRA AZEVEDO                   000027CARNES                                  000027                     0104197631011984070931000000
000028001RENATO CLAUDIO RHODEU                   000028BOJUNGA - DIAS S.A.ENG. IND. E COM      000028PROJETISTA           2904197429071977030301000000
000028002RENATO CLAUDIO RHODEU                   000028SAGHS S/A ENGIND E COMERCIO             000028SUPERVISOR DE OBRAS  1808197812111982040225000000
000028003RENATO CLAUDIO RHODEU                   000028BOJUNGA . DIAS S.A.                     000028COORDENADOR          2211198230111986040009000000
000028004RENATO CLAUDIO RHODEU                   000028LOJAS RENNER S.A.                       000028ENG DE OPERACAO      0112198630071989020730000000
000028005RENATO CLAUDIO RHODEU                   000028REICHERT CALCADOS LTDA                  000028ENG OPERACIONAL     S2105199030101998000000110926
000029001SILVIO EURICO DA SILVA                  000029RURAL                                   000029AGRICULTOR           3012196607021973060108000000
000029002SILVIO EURICO DA SILVA                  000029PREFEITURA MUNICIPAL DE MONTENEGRO      000029TRABALHADOR BRACAL   0802197301061973000324000000
000029003SILVIO EURICO DA SILVA                  000029PEDRO P.C. DE CAMPOS                    000029SERVENTE             2910197322051974000624000000
000029004SILVIO EURICO DA SILVA                  000029FRIGORIFICO RENNER S/A PROD ALIMENTICIOS000029SERVENTE             2705197419071974000123000000
000029005SILVIO EURICO DA SILVA                  000029MABRA LTDA EMPREITEIRA DE MAO-DE-OBRA   000029SERVENTE             2206197419111974000428000000
000029006SILVIO EURICO DA SILVA                  000029GUAIBA CARNES PEC. IND E COM LTDA       000029SERVENTE             1203197508071975000327000000
000029007SILVIO EURICO DA SILVA                  000029NIENOW SCHERE CIA LIDA                  000029SERVICOS GERAIS      0412197501051976000428000000
000029008SILVIO EURICO DA SILVA                  000029CURTUME KERN MATTES S A                 000029SERVENTE            S0805197621091981000000070607
000029009SILVIO EURICO DA SILVA                  000029NICHE CALCADOS E BOLSAS LTDA            000029LIXADOR OUT SERVIRCO 2909198119011982000321000000
000029010SILVIO EURICO DA SILVA                  000029BEANINHA IND DE CALCADOS LTDA           000029SERVICOS GERAIS      2001198202031982000113000000
000029011SILVIO EURICO DA SILVA                  000029CURTUME BOA VISTA LTDA                  000029SERVENTE             0803198206041982000029000000
000029012SILVIO EURICO DA SILVA                  000029ARTHUR P MULLER CIA LTDA                000029SERVENTE DE CURTIDORS1204198202071986000000051029
000029013SILVIO EURICO DA SILVA                  000029SERRARIA E MADEIRERA HARTMANN LTDA      000029BALCONISTA           0108198601091988020101000000
000029014SILVIO EURICO DA SILVA                  000029SERRARIA EMADEIREIRA HARTMANN LTDA      000029BALCONISTA           0711198802011995060126000000
000029015SILVIO EURICO DA SILVA                  000029WALLAUER IRMAOS CIA LTDA                000029VENDEDOR             0304199523061998030221000000
000030001DARI SILVEIRA AZEVEDO                   000030P. BARCELLOS & CIA LTDA                 000030MOTORISTA            1904196502071965000214000000
000030002DARI SILVEIRA AZEVEDO                   000030IRMAOS HANSEN PEREIRA LTDA              000030MOTORISTA            0111196528021966000328000000
000030003DARI SILVEIRA AZEVEDO                   000030RUI VARGAS                              000030MOTORISTA            0103196620011967001020000000
000030004DARI SILVEIRA AZEVEDO                   000030pp. AUTO VIACAO MONTENEGRO LTDA         000030MOTORISTA            1605196720031968001005000000
000030005DARI SILVEIRA AZEVEDO                   000030LAURENTINO HAYER DA SILVA CIA LTDA      000030MOTORISTA            1805196812111968000525000000
000030006DARI SILVEIRA AZEVEDO                   000030RUY VARGAS                              000030MOTORISTA            0112196931031970000331000000
000030007DARI SILVEIRA AZEVEDO                   000030AUTO VIACAO MONTENEGRO LTDA             000030MOTORISTA            0105197020121971010720000000
000030008DARI SILVEIRA AZEVEDO                   000030AUTO VIACAO MONTENEGRO LTDA             000030MOTORISTA            0102198429011986011129000000
000030009DARI SILVEIRA AZEVEDO                   000030VIACAO MONTENEGRO SA                    000030MOTORISTA            2106198624071986000104000000
000031001JONAS FERNANDO MULLER                   000031CALCADOS SENSITIVA LTDA                 000031AUX GER OFICINA      0204197319041973000018000000
000031002JONAS FERNANDO MULLER                   000031IRMAOS MULLER S.A. IND E COMERCIO       000031APRENDIZ CORTE      S1704197301091977000000060115
000031003JONAS FERNANDO MULLER                   000031P. ALLES - FABRICA DE MOLDURAS          000031AUX SERV. GERAIS     0609197706121977000301000000
000031004JONAS FERNANDO MULLER                   000031MAQUINAS KLEIN S/A - IND E COMERCIO     000031AJUSTADOR           S1302197801081979000000020020
000031005JONAS FERNANDO MULLER                   000031L.P. COPE & CIA LTDA                    000031OPER. DE FURADEIRA  S0603198029121983000000050403
000031006JONAS FERNANDO MULLER                   000031L.P. COPE & CIA LTDA                    000031MEIO OFIC FERRAMENT  0102198424121987031024000000
000031007JONAS FERNANDO MULLER                   000031L.P. COPE & CIA LTDA                    000031FERRAMENTEIRO        2701198823031989010127000000
000031008JONAS FERNANDO MULLER                   000031PROAR EQUIPAMENTOS PNEUMATICOS LTDA     000031FERRAMENTEIRO AFIADO 1208199216021995020605000000
000031009JONAS FERNANDO MULLER                   000031ASTEMBOR IND E COM. MAQ EQUIPAMEN LTDA  000031FERRAMENTEIRO        2701199503041996010207000000
000031010JONAS FERNANDO MULLER                   000031ANSALDO COENSA S.A.                     000031AJUSTADOR MECANICO   1011199716101998001107000000
000032001GILDO ALANO DA SILVA                    000032AMAPA DO SUL S A  IND DA BORRACHA       000032AUXILIAR            S2312196721021968000000000222
000032002GILDO ALANO DA SILVA                    000032P CALCADOS EDGAR L MULLER  S A          000032AUXILIAR GERAL       1005196826061968000117000000
000032003GILDO ALANO DA SILVA                    000032SALVATORE AVETTI                        000032A CAB DE FIVRLAS     2107196907091969000117000000
000032004GILDO ALANO DA SILVA                    000032MAQUINAS KLEIN S A IND E COM            000032SERVERCOS GERAIS    S0202197029031972000000030009
000032005GILDO ALANO DA SILVA                    000032PALINI CIA LTDA                         000032AJUSTADOR            0304197213071973010311000000
000032006GILDO ALANO DA SILVA                    000032MAQUINAS SEIKO LTDA                     000032PLEINADOR           S1606197331121973000000000904
000032007GILDO ALANO DA SILVA                    000032STRASSBURGER S A IND E COM              000032SER AUX OFE MECANICAS0104197430061979000000070406
000032008GILDO ALANO DA SILVA                    000032OUTROS                                  000032                     0411199804111998000001000000
000032009GILDO ALANO DA SILVA                    000032STRASSBURGER S A IND E COM              000032MEC DE MANUTENCAO   S0108197914111980000000010919
000032010GILDO ALANO DA SILVA                    000032CONCORDIA MAQUINASLTDA                  000032SERVICOS GERAIS      2505198111091981000317000000
000032011GILDO ALANO DA SILVA                    000032TOCCHETTO S A MAQUINAS INDUSTRIAIS      000032MEC DE  MANUTENCAO  S0110198118011982000000000501
000032012GILDO ALANO DA SILVA                    000032TOCCHETTO S A MAQUINAS INDUSTRIAIS      000032MEC DE MANUTENCAO   S2004198216071982000000000401
000032013GILDO ALANO DA SILVA                    000032DEMUTH MAQUINAS INDUSTRIAIS LTDA        000032PLAINADOR           S1611198214031983000000000516
000032014GILDO ALANO DA SILVA                    000032CALCADOS KLASER S A IND COM             000032MEC DE MANUTENCAO    1603198309101987040624000000
000032015GILDO ALANO DA SILVA                    000032CALCADOSKLASER S A IND COM              000032MEC DE MANUTENCAO    2610198716071988000821000000
000032016GILDO ALANO DA SILVA                    000032CALCADOS EVOCRI LTDA                    000032MEC DE MANUTENCAO    1508198817051989000903000000
000032017GILDO ALANO DA SILVA                    000032STRASSBURGER S A IND E COM              000032MEC DE MANUTENCAO   S2505198915011991000000020317
000032018GILDO ALANO DA SILVA                    000032PILOT IND E COM DE CALCADOS LTDA        000032MEC DE MANUTENCAO   S0104199229111996000000060610
000033001ANA MARIA BRNNER HENNEMANN              000033CALCADOS CIRO SA                        000033COMPRAS              0109196916031977070616000000
000033002ANA MARIA BRNNER HENNEMANN              000033RAUL HENEMANN                           000033DECORACAO            0103197931071979000431000000
000033003ANA MARIA BRNNER HENNEMANN              000033AUTONOMA                                000033ARQUITETA            0112197828021979000228000000
000033004ANA MARIA BRNNER HENNEMANN              000033AUTONOMA                                000033ARQUITETA            0108197931101997180231000000
000034001JOSE FRANCISCO DE VARGAS                000034INCOBOL - IND COM BORRACHA LTDA         000034SERVICOS GERAIS      0307198910061994041108000000
000034002JOSE FRANCISCO DE VARGAS                000034KADY IND DE ARTEFATOS DE BORRACHA LTDA  000034SERVICOS GERAIS      0112199430031995000330000000
000034003JOSE FRANCISCO DE VARGAS                000034PERIODO DE CARNE                        000034AUTONOMO             0110199630031998010530000000
000035001ERNANDES NUNES DA SILVEIRA              000035CALCADOS LUDWIG S/A                     000035SERVICOS GERAIS      1407197801121982040418000000
000035002ERNANDES NUNES DA SILVEIRA              000035SIBISA INDUSTRIAL DE CALCADOS           000035MONTADOR             2001198310041984010221000000
000035003ERNANDES NUNES DA SILVEIRA              000035BROCHIER S/A IND DE SALTOS E CALCADOS   000035MONTADOR E SERV GERA 1705198423111984000607000000
000035004ERNANDES NUNES DA SILVEIRA              000035FABRICA DE ARTIGOS DE COURO LTDA        000035MONTADOR             0712198405061985000529000000
000035005ERNANDES NUNES DA SILVEIRA              000035PERIODO DE CARNE                        000035AUTONOMO             0106199428021996010828000000
000035006ERNANDES NUNES DA SILVEIRA              000035PERIODO DE CARNE                        000035AUTONOMO             0105199630111996000630000000
000036001DERLY JOSE FERREIRA                     000036CALCADOS CATLEIA SA                     000036AUXILIAR            S2505197613061979000000040308
000036002DERLY JOSE FERREIRA                     000036CALCADOS CATLEIA SA                     000036AUXILIAR            S1406197910031982000000031001
000036003DERLY JOSE FERREIRA                     000036CALCADOS CATLEIA SA                     000036AUXILIAR            S1103198219031984000000020930
000036004DERLY JOSE FERREIRA                     000036CALCADOS CATLEIA SA                     000036AUXILIAR            S2003198417081984000000000627
000036005DERLY JOSE FERREIRA                     000036VACCHI SA                               000036CONTRA MESTRE       S0309198415121985000000010918
000036006DERLY JOSE FERREIRA                     000036VACCHI SA IND COM                       000036CONTRA MESTRE       S1601198601121988000000040010
000036007DERLY JOSE FERREIRA                     000036AZALEIA  CALCADOS CONCEICAO LTDA        000036SUPERVISOR          S0212198802051989000000000701
000036008DERLY JOSE FERREIRA                     000036CALCADOS MARCELA LTDA                   000036GERENTE              1505198914111989000530000000
000036009DERLY JOSE FERREIRA                     000036SEVY CALCADOS LTDA                      000036CONTRA MESTRE        1112198924071990000714000000
000036010DERLY JOSE FERREIRA                     000036EUROPEIA CALCADOS LTDA                  000036CONTRA MESTRE        0108199012071991001112000000
000036011DERLY JOSE FERREIRA                     000036FLECK E FLECK LTDA                      000036CHEFE                0302199210031992000108000000
000036012DERLY JOSE FERREIRA                     000036CALCADOS GALHARDI LTDA                  000036CONTRA MESTRE        1405199210071992000127000000
000036013DERLY JOSE FERREIRA                     000036VALE COUROS TRADING SA                  000036GERENTE              2707199229091992000203000000
000036014DERLY JOSE FERREIRA                     000036AZALEIA SAO SEBASTIAO LTDA              000036SUPERVISOR          S1310199213101996000000050707
000036015DERLY JOSE FERREIRA                     000036AZALEIA                                 000036SUPERVISOR           1410199605111998020022000000
000036016DERLY JOSE FERREIRA                     000036REGIME DE ECONOMIA FAMILIAR             000036AGRICULTOR           0208196524051976100923000000
000037000RENATO SALIBI SCHUTZ                    000037XAVIER KUNST CIA LTDA                   000037ASSISTENTE           0406198103101981000330000000
000037001RENATO SALIBI SCHUTZ                    000037B A MORAES CIA                          000037SERVENTE             0102196330091965020730000000
000037002RENATO SALIBI SCHUTZ                    000037EXPRESSO RIO GRANDE S PAULO             000037AUXILIAR             1910196530111967020112000000
000037003RENATO SALIBI SCHUTZ                    000037TRANSCOSUL LTDA                         000037AUX ESCRITORIO       0112196721081971030821000000
000037004RENATO SALIBI SCHUTZ                    000037UNIVEST SA                              000037REPRESENTANTE        2608197110111971000215000000
000037005RENATO SALIBI SCHUTZ                    000037IMP CALGANHOTO LTDA                     000037VENDEDOR             0112197131051972000531000000
000037006RENATO SALIBI SCHUTZ                    000037NOMURA SUL                              000037SG                   2208197231121972000410000000
000037007RENATO SALIBI SCHUTZ                    000037GRUPO EDITORIAL SINOS SA                000037CORRETOR             1001197313101974010904000000
000037008RENATO SALIBI SCHUTZ                    000037P S PROPAGANDA                          000037PROPAGANDA           0110197430041975000630000000
000037009RENATO SALIBI SCHUTZ                    000037LUIZ MUSCHETTI                          000037AUXILIAR             2807197512081975000015000000
000037010RENATO SALIBI SCHUTZ                    000037COPERBRAS                               000037VENDEDOR             1508197503121976010319000000
000037011RENATO SALIBI SCHUTZ                    000037MOLISA COM PERFUMES E COSMETICOS        000037VENDEDOR             1508197505121976010321000000
000037012RENATO SALIBI SCHUTZ                    000037ISAIAS E MENDES LTDA                    000037SERV EXTERNOS        0102197705071977000505000000
000037013RENATO SALIBI SCHUTZ                    000037GINASIO SAO LUIS                        000037GUITARRISTA          1208197728021979010617000000
000037014RENATO SALIBI SCHUTZ                    000037EDITORA PINI LTDA                       000037CONTATO              0509197702041980020628000000
000037015RENATO SALIBI SCHUTZ                    000037ESCOLA SANTA CATARINA                   000037AUX MUSICO           0103197924121979000924000000
000037016RENATO SALIBI SCHUTZ                    000037MITRA DE ARQUIDIOCESE DE PORTO ALEGRE   000037AUX MUSICO           0104198031121980000831000000
000037017RENATO SALIBI SCHUTZ                    000037H A RIBEIRO                             000037SER GER              0109198031031981000631000000
000037018RENATO SALIBI SCHUTZ                    000037BEST IMP E EXPORTACAO LTDA              000037REVISOR              0311198101041982000429000000
000037019RENATO SALIBI SCHUTZ                    000037TRANSPORTE SUL BRASIL LTDA              000037PROMOTOR             1806198228091982000311000000
000037020RENATO SALIBI SCHUTZ                    000037CALCADOS LAYDY DAYANY LTDA              000037GERENTE              0108198230031986030730000000
000037021RENATO SALIBI SCHUTZ                    000037IND E COM CALCADOS ARTE E MODA LTDA     000037GERENTE              0204198630101989030629000000
000037022RENATO SALIBI SCHUTZ                    000037CALCADOS US KLOKI LTDA                  000037GERENTE              0201199005031991010204000000
000037023RENATO SALIBI SCHUTZ                    000037CALCADOS USKLOKI                        000037GERENTE              0803199120081992010513000000
000037024RENATO SALIBI SCHUTZ                    000037SIP PUBLICIDADE LTDA                    000037GERENTE              2508199227101995030203000000
000037025RENATO SALIBI SCHUTZ                    000037ROGERE COM E REPRES LTDA                000037GERENTE              2811199505111998021108000000
000038001SERGIO DA COSTA                         000038E.H.BERGHAN & CIA LTDA                  000038                    S0712197012041971000000000526
000038002SERGIO DA COSTA                         000038CURTUME BENDER SCHUCK                   000038                    S1404197109011973000000020506
000038003SERGIO DA COSTA                         000038CURTUME LEUCK MATTES S.A                000038                    S1001197313011975000000020923
000038004SERGIO DA COSTA                         000038CURTUME BENDER SCHUCK S/A               000038                    S2001197519051975000000000518
000038005SERGIO DA COSTA                         000038EMILIO FREDERICO BOHRER                 000038                     2205197513101975000422000000
000038006SERGIO DA COSTA                         000038BANCO DO ESTADO DO RIO GRANDE DO SUL    000038                     0311197528041995190526000000
000038007SERGIO DA COSTA                         000038BANCO DO ESTADO DO RIO GRANDE DO SUL    000038                     2904199509111998030611000000
000039001MENO TEOFILO KINOST                     000039CALCADOS CIRO SA IND COM                000039SERVENTE             2005196528021966000909000000
000039002MENO TEOFILO KINOST                     000039BECKER E SEIBERT LTDA                   000039SERVENTE             0106196629071966000129000000
000039003MENO TEOFILO KINOST                     000039CONSTRUTORA CASTILHOS VOLKMANN LTDA     000039SERVENTE             2006197512081977020123000000
000039004MENO TEOFILO KINOST                     000039CALCADOS NOVISOL LTDA                   000039SERRADOR             1309197730041991130718000000
000039005MENO TEOFILO KINOST                     000039CALCADOS NOVISOL LTDA                   000039ESCOVADOR            0306199113101996050411000000
000039006MENO TEOFILO KINOST                     000039CALCADOS NOVISOL LTDA                   000039ESCOVADOR            1410199603071998010820000000
000040001RAUL HENNEMANN                          000040INST CULTURAL BRASILEIRO NORTE AMERICANO000040PROFESSOR            0108196529031969030729000000
000040002RAUL HENNEMANN                          000040CONSTRUTEC IND DA CONSTRUCAO LTDA       000040ESTAGIARIO           1707197003101974040217000000
000040003RAUL HENNEMANN                          000040AUTONOMO                                000040AUTONOMO             0102197431101977030831000000
000040004RAUL HENNEMANN                          000040AUTONOMO                                000040                     0111197930061991110730000000
000040005RAUL HENNEMANN                          000040AUTONOMO                                000040                     0102199530081995000630000000
000040006RAUL HENNEMANN                          000040AUTONOMO                                000040                     0105199630041997001130000000
000040007RAUL HENNEMANN                          000040TOPAZIO                                 000040ASSISTENTE           0204198431051986020130000000
000040008RAUL HENNEMANN                          000040BROWN GROUNP INTERNATIONAL              000040GERENTE              1906199109011995030621000000
000041001JOSE REMIDIO LIPPERT                    000041FRIDOLINO RITTER CIA                    000041SER GER              0103197618031976000018000000
000041002JOSE REMIDIO LIPPERT                    000041CALCADOS RIO VERDE LTDA                 000041SER GER              3003197628051976000129000000
000041003JOSE REMIDIO LIPPERT                    000041CURTUME A JAEGER SA                     000041SER GER              0107197604081976000104000000
000041004JOSE REMIDIO LIPPERT                    000041IND DE PELES SUARES                     000041SER GER             S0508197625091978000000021129
000041005JOSE REMIDIO LIPPERT                    000041IND DE PELES SUAREZ                     000041SER GER             S0410197830041979000000000919
000041006JOSE REMIDIO LIPPERT                    000041FRIDOLINO RITTER CIA                    000041MECANICO            S2505198117011985000000050108
000041007JOSE REMIDIO LIPPERT                    000041FRIDOLINO RITTER CIA                    000041MECANICO            S1203198511031988000000040212
000041008JOSE REMIDIO LIPPERT                    000041FRIDOLINO RITTER CIA                    000041MECANICO            S2006198823061989000000010429
000041009JOSE REMIDIO LIPPERT                    000041BROCHIER SA IND DE CALCADOS             000041MECANICO             2606198910101989000315000000
000041010JOSE REMIDIO LIPPERT                    000041BROCHIER SA                             000041MECANICO             1610198908051992020623000000
000041011JOSE REMIDIO LIPPERT                    000041FRIDOLINO RITTER  CIA                   000041MECANICO            S1105199213101996000000060210
000041012JOSE REMIDIO LIPPERT                    000041FRIDOLINO RITTER CIA                    000041MECANICO             1410199607111998020024000000
000041013JOSE REMIDIO LIPPERT                    000041REGIME DE ECONOMIA FAMILIAR             000041AGRICULTOR           0502197028021976060024000000
000042001LEONIDIO WEILER                         000042CALCADOS RUBELO LTDA                    000042SER GER             S1505197801031979000000010111
000042002LEONIDIO WEILER                         000042JOSE LUIZ WITTMANN                      000042SER GER              0603197916061983040311000000
000042003LEONIDIO WEILER                         000042CALCADOS RUBELO LTDA                    000042SER GER             S0107198317041989000000080111
000042004LEONIDIO WEILER                         000042CALCADOS RUBELLO LTDA                   000042SER GER             S0105198931121994000000071107
000042005LEONIDIO WEILER                         000042DAKOTA CALADOS LTDA                     000042SER GER             S0201199513101996000000020528
000042006LEONIDIO WEILER                         000042REGIME DE ECONOMIA FAMILIAR             000042AGRICULTOR           0701197314051978050408000000
000042007LEONIDIO WEILER                         000042DAKOTA                                  000042SER GER              1410199607111998020024000000
000043001DULCE AULER                             000043REICHERT CALCADOS                       000043COSTURA              0106197803081978000203000000
000043002DULCE AULER                             000043CALCADOS DILLY LTDA                     000043SER GER             S0509198330121988000000060419
000043003DULCE AULER                             000043CALCADOS DILLY LTDA                     000043SER GER             S0201198913101996000000090402
000043004DULCE AULER                             000043CALCADOS DILLY LTDA                     000043SER GER              1410199616021998010403000000
000043005DULCE AULER                             000043SINAIDE TERESINHA SCHAEFER              000043COZINHEIRA           0203199807111998000806000000
000043006DULCE AULER                             000043REGIME DE ECONOMIA FAMILIAR             000043AGRICULTORA          2810197131121975040204000000
000043007DULCE AULER                             000043REGIME DE ECONOMIAS FAMILIAR            000043AGRICULTORA          0101198131121981001131000000
000044001CARLOS LORI MARTINS DE OLIVEIRA         000044CALCADOS LOUSANE LTDA                   000044AUX GERAL            1504196804081969010320000000
000044002CARLOS LORI MARTINS DE OLIVEIRA         000044STRASSBURGER CIA LTDA                   000044SECAO DE OFICINA     2010196913041973030524000000
000044003CARLOS LORI MARTINS DE OLIVEIRA         000044REICHERT SA CALCADOS                    000044TRILHOS E OUTROS SER 2708197608031977000612000000
000044004CARLOS LORI MARTINS DE OLIVEIRA         000044SOLANGE TERESINHA DA SILVA              000044SER GER              2606197809111979010414000000
000044005CARLOS LORI MARTINS DE OLIVEIRA         000044REICHERT CALCADOS                       000044TRILHOS              2604197327061974010202000000
000044006CARLOS LORI MARTINS DE OLIVEIRA         000044REICHERT CALCADOS LTDA                  000044TRILHOS              0612197411041975000406000000
000044007CARLOS LORI MARTINS DE OLIVEIRA         000044HAUSCHILD SA IND COM                    000044AUXILIAR             0407197412111974000409000000
000044008CARLOS LORI MARTINS DE OLIVEIRA         000044VARGAS OLIVEIRA E CIA LTDA              000044CHEFE SECAO          0109198105021982000505000000
000044009CARLOS LORI MARTINS DE OLIVEIRA         000044CALCADOS FILLIS SA                      000044SER GER              1002198230091983010721000000
000044010CARLOS LORI MARTINS DE OLIVEIRA         000044CALCADOS FILLIS SA                      000044SER GER              0310198331071985010929000000
000044011CARLOS LORI MARTINS DE OLIVEIRA         000044CALCADOS FILLIS SA                      000044SER GER              0108198530091987020130000000
000044012CARLOS LORI MARTINS DE OLIVEIRA         000044CALCADOS FIILIS SA                      000044SER GER              0110198730111989020130000000
000044013CARLOS LORI MARTINS DE OLIVEIRA         000044CALCADOS FILLIS SA                      000044SG PRE               0112198917091991010917000000
000044014CARLOS LORI MARTINS DE OLIVEIRA         000044SCHMIDT IRMAOS CALCADOS LTDA            000044SER GER              0104199213101996040613000000
000044015CARLOS LORI MARTINS DE OLIVEIRA         000044SCHMIDT IRMAOS CALCADOS                 000044SER GER              1410199607111998020024000000
000045001ADAO MARQUES DE OLIVEIRA                000045ENGEBRAS SA                             000045PINTOR               0105196827051968000027000000
000045002ADAO MARQUES DE OLIVEIRA                000045SA MOINHOS RIO GRANDENSES               000045SERVENTE             0406196810101968000407000000
000045003ADAO MARQUES DE OLIVEIRA                000045A J RENNER SA                           000045SER GER              2602196926091969000701000000
000045004ADAO MARQUES DE OLIVEIRA                000045GUANABARA ENGENHARIA LTDA               000045PINTOR               2909196912101969000014000000
000045005ADAO MARQUES DE OLIVEIRA                000045COMPANHIA DE CIMENTO PORTLAND GAUCHO    000045SERVENTE             0202197027011971001126000000
000045006ADAO MARQUES DE OLIVEIRA                000045HAROLD RUY BEHRENDS                     000045PINTOR               2202197104061971000313000000
000045007ADAO MARQUES DE OLIVEIRA                000045MASSEY FERGUSON DO BRASIL SA            000045AJUDANTE            S3006197117051973000000020719
000045008ADAO MARQUES DE OLIVEIRA                000045TRANSPORTADORA PRIMOROSA LTDA           000045DESCARREGADOR        1806197318071973000101000000
000045009ADAO MARQUES DE OLIVEIRA                000045TRASNP PRIMOROSA LTDA                   000045DESCARREGADOR        1808197325101973000208000000
000045010ADAO MARQUES DE OLIVEIRA                000045ATHANASIO NOE                           000045MEC MANUTENCAO       0301197406031974000204000000
000045011ADAO MARQUES DE OLIVEIRA                000045FABRICA DE PAEL TRES PORTOS  SA         000045MECANICO            S0703197411111974000000001113
000045012ADAO MARQUES DE OLIVEIRA                000045FUNDICAO MINUANO SA                     000045MECANICO             1902197519031975000101000000
000045013ADAO MARQUES DE OLIVEIRA                000045RECRUSUL SA                             000045SERRALHEIRO          0704197523061975000217000000
000045014ADAO MARQUES DE OLIVEIRA                000045METALURGICA METALSINOS LTDA             000045SERRALHEIRO          3006197506101975000307000000
000045015ADAO MARQUES DE OLIVEIRA                000045SAN IZIDRO SA                           000045SER GER              0311197506091976001004000000
000045016ADAO MARQUES DE OLIVEIRA                000045FRIVALE SA                              000045PEDREIRO             1210197611111976000030000000
000045017ADAO MARQUES DE OLIVEIRA                000045SAN IZIDRO SA                           000045SER GER              0112197609051977000509000000
000045018ADAO MARQUES DE OLIVEIRA                000045IND DE CALCADOS BIBI LTDA               000045SER GER              1105197726071977000216000000
000045019ADAO MARQUES DE OLIVEIRA                000045RECRUSUL SA VIATURAS                    000045SERRALHEIRO          1912197701021978000113000000
000045020ADAO MARQUES DE OLIVEIRA                000045DIRECOES HIDRAULICAS DO BRASIL SA       000045MONTADOR             2002197806031978000017000000
000045021ADAO MARQUES DE OLIVEIRA                000045ALMIRO GRINGS CIA LTDA                  000045SER MANUTENCAO      S1303197825091979000000020124
000045022ADAO MARQUES DE OLIVEIRA                000045CALCADOS LARUSE IND COM LTDA            000045SER GER              2111197902021981010212000000
000045023ADAO MARQUES DE OLIVEIRA                000045ALPARGATAS CALCADOS SUL SA              000045MECANICO            S0805198112071982000000010725
000045024ADAO MARQUES DE OLIVEIRA                000045ALMIRO GRINGS CIA LTDA                  000045MECANICO            S1607198212031984000000020325
000045025ADAO MARQUES DE OLIVEIRA                000045ALMIRO GRINGS CIA LTDA                  000045MECANICO            S0204198409061986000000030023
000045026ADAO MARQUES DE OLIVEIRA                000045ALMIRO GRINS CIA LTDA                   000045CHEFE DE MANUTENCAO  0107198627061987001127000000
000045027ADAO MARQUES DE OLIVEIRA                000045ALMIRO GRINGS CIA LTDA                  000045CHEFE DE MANUTENCAO S0107198708021989000000020229
000045028ADAO MARQUES DE OLIVEIRA                000045ALMIRO GRINGS CIA LTDA                  000045CHEFE DE MANUTENCAO S0103198929081990000000020104
000045029ADAO MARQUES DE OLIVEIRA                000045ALMIRO GRINGS CIA LTDA                  000045CHEFE DE MANUTENCAO S0309199014011992000000011028
000045030ADAO MARQUES DE OLIVEIRA                000045CALCADOS  STATUS LTDA                   000045MECANICO             1603199203021993001018000000
000045031ADAO MARQUES DE OLIVEIRA                000045CHAPLIN CALCADOS LTDS                   000045GERENTE              0407199423111994000420000000
000045032ADAO MARQUES DE OLIVEIRA                000045BENELUX IND COM IMP EXP                 000045CHEFE                0103199529051995000229000000
000045033ADAO MARQUES DE OLIVEIRA                000045WERNER CALCADOS LTDA                    000045MECANICO            S1109199513101996000000010610
000045034ADAO MARQUES DE OLIVEIRA                000045WERNER CALCADOS LTDA                    000045MECANICO             1410199607111998020024000000
000045035ADAO MARQUES DE OLIVEIRA                000045IND DE CALCADOS FANCY LTDA              000045MECANICO             0203199316041993000115000000
000045036ADAO MARQUES DE OLIVEIRA                000045CALCADOS SURGE LTDA                     000045MECANICO            S2204199312041994000000010411
000046001ANSELMO GOMES                           000046METALURGICA VIGANICO LTDA               000046SER GER              2806197715091977000218000000
000046002ANSELMO GOMES                           000046FORNECEDORA                             000046AUX GERAL           S1609197728111979000000030030
000046003ANSELMO GOMES                           000046FORNECEDORA                             000046AUX GERAL           S0312197904011982000000021102
000046004ANSELMO GOMES                           000046FORNECEDORA                             000046AUX GERAL           S0501198228121984000000040203
000046005ANSELMO GOMES                           000046FORNECEDORA                             000046AUX GERAL           S2912198431081989000000060616
000046006ANSELMO GOMES                           000046FORNECEDORA                             000046AUX GERAL           S0109198813101996000000110412
000046007ANSELMO GOMES                           000046FORNECEDORA                             000046AUX GERAL            1311199607111998011125000000
000047000AMILTON JOSE SARMENTO                   000047POHLMANN SA                             000047SER GER              0106197214111975030514000000
000047001AMILTON JOSE SARMENTO                   000047CALCADOS CIRO SA                        000047APRENDIZ             0308197026021971000624000000
000047002AMILTON JOSE SARMENTO                   000047STEYER VASILESCU CIA LTDA               000047APRENDIZ             0104197121091971000521000000
000047003AMILTON JOSE SARMENTO                   000047CALCADOS PRIMAZ LTDA                    000047AUX                  2209197107011972000316000000
000047004AMILTON JOSE SARMENTO                   000047KI PAINEL LTDA                          000047SER GER              2611197515031976000320000000
000047005AMILTON JOSE SARMENTO                   000047BRUM MINEIRO CIA LTDA                   000047ALMOXARIFE           0104197610051976000110000000
000047006AMILTON JOSE SARMENTO                   000047KI PAINEL LTDA                          000047SER GER              1205197603091976000322000000
000047007AMILTON JOSE SARMENTO                   000047GRUPO EDITORIAL SINOS SA                000047DESENHISTA          S1509197616091977000000010426
000047008AMILTON JOSE SARMENTO                   000047GRUPO EDITORIAL SINOS SA                000047DESENHISTA          S0112197706081978000000001114
000047009AMILTON JOSE SARMENTO                   000047KLEMAC COM MAQS EM GERAL LTDA           000047REPRES               2509197802011979000308000000
000047010AMILTON JOSE SARMENTO                   000047GRUPO EDITORIAL SINOS SA                000047CHEFE PAGINACAO     S0602197930041980000000010823
000047011AMILTON JOSE SARMENTO                   000047SAT                                     000047DESENHISTA           0605198024021982010919000000
000047012AMILTON JOSE SARMENTO                   000047GRUPO EDITORIAL SINOS SA                000047DESENHISTA          S0104198211081986000000060109
000047013AMILTON JOSE SARMENTO                   000047GRUPO EDITORIAL SINOS SA                000047SUPERVISOR          S0109198609101987000000010618
000047014AMILTON JOSE SARMENTO                   000047SBS PROPAGANDA                          000047CRIACAO              0311198730111990030028000000
000047015AMILTON JOSE SARMENTO                   000047GRUPO EDITORIAL SINOS                   000047CRIACAO             S0512199031121992000000021025
000047016AMILTON JOSE SARMENTO                   000047GRUPO EDITORIAL SINOS                   000047CRIACAO              0101199309111998051009000000
000048001NELSON LECHNER                          000048RURAL                                   000048AGRICULTOR           0101196730041974070330000000
000048002NELSON LECHNER                          000048VIACAO HAMBURGUESA LTDA                 000048MOTORISTA           S0105197431051977000000040325
000048003NELSON LECHNER                          000048VIACAO HAMBURGUESA LTDA                 000048MOTORISTA           S0107197731031978000000010019
000048004NELSON LECHNER                          000048VIACAO HAMBURGUESA LTDA                 000048MOTORISTA           S0712197830111981000000040203
000048005NELSON LECHNER                          000048VIACAO HAMBURGUESA LTDA                 000048MOTORISTA           S0101198205031990000000110513
000048006NELSON LECHNER                          000048CARNE                                   000048AUTONMOMO            0104197830041978000030000000
000048007NELSON LECHNER                          000048CARNE                                   000048AUTONOMO             0103199030111996060830000000
000048008NELSON LECHNER                          000048CARNE                                   000048AUTONOMO             0112199730121997000030000000
000048009NELSON LECHNER                          000048BAR RESTAURANTE CARREITEIRO LTDA        000048GERENTE COMERCIAL    0106199809111998000509000000
000049001AIDE TEREZINHA RODRIGUES HENRIQUES      000049ROSA MARIA ISOPPO LEAO                  000049SER GER              1004198910051989000101000000
000049002AIDE TEREZINHA RODRIGUES HENRIQUES      000049LECY DOS SANTOS ABECH                   000049SER DOMESTICOS       0106199503081996010203000000
000049003AIDE TEREZINHA RODRIGUES HENRIQUES      000049VILMAR FERNANDO CAVALHEIRO              000049SER DOMESTICOS       0408199630091998020127000000
000049004AIDE TEREZINHA RODRIGUES HENRIQUES      000049CONTR DOBRO                             000049CONTR DOBRO          0104198628021987001028000000
000049005AIDE TEREZINHA RODRIGUES HENRIQUES      000049FACULTATIVO                             000049FACULTATIVO          0106199531071996010131000000
000049006AIDE TEREZINHA RODRIGUES HENRIQUES      000049CARNE                                   000049DOMESTICA            0110199631101996000031000000
000049007AIDE TEREZINHA RODRIGUES HENRIQUES      000049PERIODO A SER RECOLHIDO                 000049EMPRESARIA           0101199028021995050128000000
000049008AIDE TEREZINHA RODRIGUES HENRIQUES      000049PERIODO A SER RECOLHIDO                 000049DOMESTICA            0111199630091998011030000000
000050001PAULO DA SILVA FREITAS                  000050OSVALDO MACHADO LEMES                   000050SER GER             S0104196819041980000000161014
000050002PAULO DA SILVA FREITAS                  000050IND DE MOVEIS NOVIBEL LTDA              000050AUXILIAR             1807198028081980000111000000
000050003PAULO DA SILVA FREITAS                  000050RUY AMORIM CIA LTDA                     000050AUX MECANICO        S0109198027101982000000030007
000050004PAULO DA SILVA FREITAS                  000050FIRMIANO DE FREITAS FLORES              000050SER GER              0408198316121983000413000000
000050005PAULO DA SILVA FREITAS                  000050RUY AMORIM CIA LTDA                     000050AUX MECANICO        S0301198413021986000000021115
000050006PAULO DA SILVA FREITAS                  000050J C IRMAOS LTDA                         000050OPERADOR DE MAQUINAS 0103198622081988020522000000
000050007PAULO DA SILVA FREITAS                  000050SERRALHERIA MARINHO LTDA                000050SERRALHEIRO          0108198901111989000301000000
000050008PAULO DA SILVA FREITAS                  000050VIDRACARIA BRASIL SA                    000050EMBALADOR           S0309199013101996000000080621
000050009PAULO DA SILVA FREITAS                  000050VIDRARIA SUL BRASIL SA                  000050EMBALADOR            1410199623101997010010000000
000051001ARMIN JACOBSEN                          000051CALCADOS CATLEIA SA IND COM             000051AUX OFICINA         S1404198015031983000000040102
000051002ARMIN JACOBSEN                          000051CALCADOS CATLEIA SA                     000051AUX AMOSTRAS        S1606198315091986000000040618
000051003ARMIN JACOBSEN                          000051CALCADOS CATLEIA SA                     000051AUX AMOSTRAS        S1609198601111989000000040416
000051004ARMIN JACOBSEN                          000051CALCADOS CATLEIA SA                     000051AUX AMOSTRAS        S0211198815091994000000080219
000051005ARMIN JACOBSEN                          000051CALCADOS CATLEIA SA                     000051MESTRE              S1711199406101996000000020722
000051006ARMIN JACOBSEN                          000051AREZZO IND E COM LTDA                   000051ENC DE MONSTAGEM     0811199629091998011022000000
000051007ARMIN JACOBSEN                          000051MINISTERIO DO EXERCITO                  000051SOLDADO              1501197616111976001002000000
000051008ARMIN JACOBSEN                          000051REGIME DE ECONOMIA FAMILIAR             000051AGRICULTOR           0109196913041980100713000000
000052000WALDEMAR PEREIRA CORREA                 000052EMPRET SINOVALE LTDA                    000052SERVENTE             0304198726081987000424000000
000052001WALDEMAR PEREIRA CORREA                 000052GASPAR CIA LTDA                         000052SER GER              0103196825021973041125000000
000052002WALDEMAR PEREIRA CORREA                 000052WEIDLE CIA                              000052SER GER              0110197318071974000918000000
000052003WALDEMAR PEREIRA CORREA                 000052CONSTRUTEC IND DA CONSTRUCAO LTDA       000052SERVENTE             0110197419021975000419000000
000052004WALDEMAR PEREIRA CORREA                 000052PLANAP PLANEJAMENTO E ENG LTDA          000052SERVENTE             2504197512091975000418000000
000052005WALDEMAR PEREIRA CORREA                 000052ABRAM                                   000052SERVENTE             2010197517111975000028000000
000052006WALDEMAR PEREIRA CORREA                 000052EMPRET SINOVALE LTDA                    000052SERVENTE             3001197911031983040112000000
000052007WALDEMAR PEREIRA CORREA                 000052SINOVALE CONSTR LTDA                    000052SERVENTE             2708198727101989020201000000
000052008WALDEMAR PEREIRA CORREA                 000052SINOVALE CONSTR LTDA                    000052SERVENTE             1902199008041990000120000000
000052009WALDEMAR PEREIRA CORREA                 000052LINEAR COML EMPRET LTDA                 000052SERVENTE             1807199012081992020025000000
000052010WALDEMAR PEREIRA CORREA                 000052CONSTR PRATES GALVAO SA                 000052SERVENTE             1805199312091996030325000000
000052011WALDEMAR PEREIRA CORREA                 000052PLANEM CONSTR LTDA                      000052SERVENTE             2205199720061997000029000000
000052012WALDEMAR PEREIRA CORREA                 000052BRUNO CORREIA DE SOUZA                  000052AFAZERES DOMESTICOS  0111199730091998001030000000
000052013WALDEMAR PEREIRA CORREA                 000052BENEFICIO                               000052BENEFICIO            1908197628021978010610000000
000052014WALDEMAR PEREIRA CORREA                 000052BENEFICIO                               000052                     2211198330061985010709000000
000053001NELIO GASTAO BECK                       000053PAQUETA SA IND                          000053SER GER              1202196831121968001020000000
000053002NELIO GASTAO BECK                       000053ROMEO EDGAR THOME                       000053AUX ESCRITORIO       0104196902021974041002000000
000053003NELIO GASTAO BECK                       000053FORLUZ IND E COM LTDA                   000053AUX ESCRITORIO       0103197515071976010415000000
000053004NELIO GASTAO BECK                       000053LINDOLFO HENKE SA                       000053AUX ESCRITORIO       1708197631081979030015000000
000053005NELIO GASTAO BECK                       000053LINDOLFO HENKE LTDA                     000053AUX ESCRITORIO       0110197908051981010708000000
000053006NELIO GASTAO BECK                       000053ADAMS SA CALCE COUROS                   000053AUX ESCRITORIO       0705198104011982000728000000
000053007NELIO GASTAO BECK                       000053STRASSBURGER SA                         000053AUX ESCRITORIO       0501198203111987050929000000
000053008NELIO GASTAO BECK                       000053STRASSBURGER SA                         000053ASSISTENTE           0411198728091990021025000000
000053009NELIO GASTAO BECK                       000053STRASSBURGER SA                         000053ASSISTENTE           0110199001071991000901000000
000053010NELIO GASTAO BECK                       000053STRASSBVURGER SA                        000053ASSISTENTE           0207199121071997060020000000
000053011NELIO GASTAO BECK                       000053PILOT IND COM                           000053ASSSISTENTE          2207199725051998001004000000
000053013NELIO GASTAO BECK                       000053REPRES MAGALHAES                        000053CHEFE ESCRITORIO     0302197428021975010026000000
000054001JULIO CESAR MARTINS DA SILVA            000054VILLANOVA CIA LTDA                      000054APRENDIZ             0203196401021965001030000000
000054002JULIO CESAR MARTINS DA SILVA            000054VILLANOVA CIA LTDA                      000054APRENDIZ             2202196530121965001009000000
000054003JULIO CESAR MARTINS DA SILVA            000054MINISTERIO DA GUERRA                    000054SOLDADO              1501196820111968001006000000
000054004JULIO CESAR MARTINS DA SILVA            000054EMPRESA JORNALISTICA VALE SINOS         000054DIAGRAMADOR          0112196821031973040321000000
000054005JULIO CESAR MARTINS DA SILVA            000054GRUPO EDITORIAL SINOS SA                000054DIAGRAMADOR          0105197330101978050530000000
000054006JULIO CESAR MARTINS DA SILVA            000054GRUPO EDITORIAL SINOS SA                000054DIAGRMADOR           0111197831031983040431000000
000054007JULIO CESAR MARTINS DA SILVA            000054GRUPO EDITORIAL SINOS SA                000054DISTRIBUIDOR         0104198312111998150712000000
000055001SERGIO SILVA COLARES                    000055SOCIEDADE CIVIL AUX. DE CONSTRUCAO IBERE000055                     1710196811101969001125000000
000055002SERGIO SILVA COLARES                    000055BOJUNGA - DIAS LTDA                     000055AJU. ELETRECISTA     0511196918061972020714000000
000055003SERGIO SILVA COLARES                    000055SIDERURGICA RIOGRANDENSE S/A            000055ELETRECISTA          2706197212091972000216000000
000055004SERGIO SILVA COLARES                    000055RECRUSUL S.A. VIATURAS E REFRIGERACOES  000055ELETRECISTA          2711197213041973000417000000
000055005SERGIO SILVA COLARES                    000055SADE-SUL AMERICANA DE ENGENHARIA S/A.   000055ELETRECISTA          2704197307081973000311000000
000055006SERGIO SILVA COLARES                    000055POOCH & CIA. LTDA                       000055ELETRECISTA          0109197321111973000221000000
000055007SERGIO SILVA COLARES                    000055ARCON S/A IND. ELETRO METALURGICA.      000055ELETRECISTA          0901197413091974000805000000
000055008SERGIO SILVA COLARES                    000055S/A TUBOS BRASIT                        000055ELETRECISTA          1110197417061975000807000000
000055009SERGIO SILVA COLARES                    000055BRASILIT S.A.                           000055ELETRECISTA          1610197521021990140406000000
000055010SERGIO SILVA COLARES                    000055A.F.C.MANUTENCOES E INSTALACOES ELETRICA000055ELETRECISTA          0806199021021991000814000000
000055011SERGIO SILVA COLARES                    000055BORPLAST - BORRACHAS E PLASTICOS LTDA.  000055ELETRECISTA INDUSTRI 0201199213021994020112000000
000055012SERGIO SILVA COLARES                    000055PREFEITURA MUNICIPAL DE MACAMBARA       000055                     0202199831051998000330000000
000056001GUILHERME DE CASTRO FALEIRO             000056CIA DE PESQUISAS E LAVRAS MINERAIS      000056DIVERSOS             1105196612111966000602000000
000056002GUILHERME DE CASTRO FALEIRO             000056MORENO BRASIL SA                        000056SERVENTE             1901197005061970000417000000
000056003GUILHERME DE CASTRO FALEIRO             000056ACOS FINOS PIRATINI SA                  000056SERVENTE            S0612197201091974000000020506
000056004GUILHERME DE CASTRO FALEIRO             000056ACOS FINOS PIRATINI SA                  000056LAVADOR             S0109197428061976000000020621
000056005GUILHERME DE CASTRO FALEIRO             000056STRASSBURGER SA                         000056AUX DE SOLA          1207197601021984070620000000
000056006GUILHERME DE CASTRO FALEIRO             000056STRASSBURGER SAS                        000056SER GER              0103198420081984000520000000
000056007GUILHERME DE CASTRO FALEIRO             000056REICHERT SA                             000056SER GER             S0509198431081989000000061125
000056008GUILHERME DE CASTRO FALEIRO             000056REICHERT SA                             000056SER GER CURTUNE     S0109198907061994000000060803
000056009GUILHERME DE CASTRO FALEIRO             000056BOX PRINT FABRICA                       000056SER GER             S0102199513101996000000020418
000057001LIBORIO EUSEBIO MATTES                  000057CALCADOS VEANCIA LTDA                   000057ENC MANUTENCAO      S0311198102071984000000030824
000057002LIBORIO EUSEBIO MATTES                  000057CALCADOS VEANCIA LTDA                   000057ENCARRAGADO         S0108198431031987000000030825
000057003LIBORIO EUSEBIO MATTES                  000057CALCADOS VEANCIA LTDA                   000057ENCARREGADO         S0405198710111989000000030609
000057004LIBORIO EUSEBIO MATTES                  000057CALCADOS VEANCIA LTDA                   000057ENCARREGADO         S0112198923031992000000030226
000057005LIBORIO EUSEBIO MATTES                  000057CALCADOS VEANCIA LTDA                   000057ENCARREGADO         S0104199216091994000000030510
000057006LIBORIO EUSEBIO MATTES                  000057CALCADOS VEANCIA LTDA                   000057ENCARREGADO         S0410199413101996000000021002
000057007LIBORIO EUSEBIO MATTES                  000057EMPRESARIO                              000057EMPRESARIO           0110197131071973010931000000
000057008LIBORIO EUSEBIO MATTES                  000057EMPRESARIO                              000057EMPRESARIO           0109197330091973000030000000
000057009LIBORIO EUSEBIO MATTES                  000057EMPRESARIO                              000057EMPRESARIO           0108197431121975010431000000
000057010LIBORIO EUSEBIO MATTES                  000057EMPRESARIO                              000057                     0102197631121976001031000000
000057011LIBORIO EUSEBIO MATTES                  000057CALCADOS VEANCIA LTDA                   000057ENCARREGADO          0410199713111998010110000000
000058001LAERCIO WITT                            000058CALCADOS JUBILEU SA                     000058SER GER              0201197417041977030316000000
000058002LAERCIO WITT                            000058STRASSBURGER SA                         000058AUX                  1804197702011979010815000000
000058003LAERCIO WITT                            000058REICHERT SA CALCADOS                    000058PLANEJAMENTO        S2604197931081981000000030314
000058004LAERCIO WITT                            000058REICHERT SA                             000058PLANEJAMENTO        S0109198131051983000000020513
000058005LAERCIO WITT                            000058REICHERT SA                             000058PLANEJAMENTO        S0106198331081985000000030125
000058006LAERCIO WITT                            000058REICHERT SA                             000058PLANEJAMENTO        S0109198531051988000000031007
000058007LAERCIO WITT                            000058REICHERT SA                             000058PLANEJAMENTO        S0106198913101996000000100324
000058008LAERCIO WITT                            000058REICHERT SA                             000058PLANEJAMENTO         1410199616111998020103000000
000059001TERESINHA FEITEN SCHUSTER               000059GUILHERME LUDWIG IND DO COURO           000059SER GER              0106197117031978060917000000
000059002TERESINHA FEITEN SCHUSTER               000059CALCADOS RELIM SA                       000059PREPARADEIRA        S0304197811021981000000030504
000059003TERESINHA FEITEN SCHUSTER               000059CALCADOS RELIM SA                       000059PREPARDEIRA         S0303198231121985000000040704
000059004TERESINHA FEITEN SCHUSTER               000059CALCADOS RELIM SA                       000059PREPARADEIRA        S0201198629011988000000020527
000059005TERESINHA FEITEN SCHUSTER               000059CALCADOS RELIM SA                       000059PREPARADEIRA        S0102198807051990000000020820
000059006TERESINHA FEITEN SCHUSTER               000059PLASTICOS JAVEL LTDA                    000059SER GER              2304199122051991000030000000
000059007TERESINHA FEITEN SCHUSTER               000059IND DE CALCADOS GLAGISA LTDA            000059PREPARADEIRA         0109199201121993010301000000
000059008TERESINHA FEITEN SCHUSTER               000059BIODERMA FARMACIA E DROGARIA LTDA       000059AUX LIMPEZA          0102199431031996020131000000
000059009TERESINHA FEITEN SCHUSTER               000059DROGARIA DA FE LTDA                     000059AUX LIMPEZA          0104199616111998020716000000
000059010TERESINHA FEITEN SCHUSTER               000059CONFECCOES MAROTY LTDA                  000059SER GER              0104197031081970000431000000
000059011TERESINHA FEITEN SCHUSTER               000059AMAPA DO SUL SA                         000059APRENDIZ             2509197025111970000201000000
000060001MARCOS BIRCK                            000060OSCAR KUNZ SA                           000060AUX GERAL           S0105197231031981000000120525
000060002MARCOS BIRCK                            000060OSCAR KUNZ SA                           000060AUX MODELAGEM       S0104198131121985000000060725
000060003MARCOS BIRCK                            000060FORMAS KUNZ LTDA                        000060MODELISTA           S0201198631081988000000030824
000060004MARCOS BIRCK                            000060FORMAS KUNZ LTDA                        000060MODELISTA           S0109198801121988000000000407
000060005MARCOS BIRCK                            000060EMPRESARIO                              000060EMPRESARIO           0112198830111997081130000000
000060006MARCOS BIRCK                            000060FORMAS KUBNZ SA                         000060MODELISTA            0405199814101998000511000000
000060007MARCOS BIRCK                            000060FORMAS E COMP LTDA                      000060MODELISTA            0710199816111998000110000000
000061000JOSE PAULO SIFRONIO                     000061FUNDICAO TUPY SA                        000061TRABALHADOR          2505197117081972010223000000
000061001JOSE PAULO SIFRONIO                     000061IND CERAMICA IMBITUBA                   000061TRAB BRACAL         S0102196625071968000000030523
000061002JOSE PAULO SIFRONIO                     000061IND CERAMICA IMBITUBA SA                000061TRAB BRACAL         S0108196815121970000000030327
000061003JOSE PAULO SIFRONIO                     000061PROD DE BOTAS E CALCADOS SA             000061AUXILIAR             1201197104021971000023000000
